:020000040800F2
:10000000A8080020B5010008492F0008F12C0008BD
:10001000452F0008D1040008ED340008000000005E
:10002000000000000000000000000000512F000848
:10003000E1040008000000004D2F0008CD33000847
:10004000CF010008CF010008CF010008CF01000850
:10005000CF010008CF010008CF010008CF01000840
:10006000CF010008CF010008CF010008D504000827
:10007000CF010008CF010008CF010008CF01000820
:10008000CF010008CF010008CF010008CF01000810
:10009000CF010008CF010008CF010008CF01000800
:1000A000CF010008CF010008CF010008CF010008F0
:1000B000CF010008CF010008CF010008CF010008E0
:1000C000CF010008CF010008CF010008CF010008D0
:1000D000CF010008E1340008CF010008CF0100087B
:1000E000CF010008CF010008CF01000800F002F89E
:1000F00000F050F814A696E8000CB244B344DA4578
:1001000001D100F047F8BAE80F000FA696E83000DA
:10011000A5EB040504EB0607AAEB0704A7F101070A
:100120004FEA15154FEA3414A4F10104AC4201D38F
:1001300000F030F813F0010F18BFFB1A43F0010371
:1001400000F001F8DBE71847883C0000A83C0000FD
:10015000103A24BF78C878C1FAD8520724BF30C8F3
:1001600030C144BF04680C60704700007047000055
:100170000023002400250026103A28BF78C1FBD8B0
:10018000520728BF30C148BF0B6070471FB51FBD65
:1001900010B510BD00F0A6F81146FFF7F7FF03F009
:1001A000BFFB00F0C4F803B4FFF7F2FF03BC00F09C
:1001B000CBF800000948804709480047FEE7FEE702
:1001C000FEE7FEE7FEE7FEE7FEE7FEE7FEE7FEE707
:1001D00004480549054A064B70470000D133000822
:1001E000ED000008A8020020A8080020A8040020B4
:1001F000A804002040EA010310B59B070FD1042A90
:100200000DD310C808C9121F9C42F8D020BA19BAE1
:10021000884201D9012010BD4FF0FF3010BD1AB146
:10022000D30703D0521C07E0002010BD10F8013B9B
:1002300011F8014B1B1B07D110F8013B11F8014BC2
:100240001B1B01D1921EF1D1184610BD4FF00002C8
:100250000429C0F0128010F0030C00F01B80CCF1D8
:10026000040CBCF1020F18BF00F8012BA8BF20F846
:10027000022BA1EB0C0100F00DB85FEAC17C24BF9A
:1002800000F8012B00F8012B48BF00F8012B704744
:100290004FF0000200B5134694469646203922BF1F
:1002A000A0E80C50A0E80C50B1F12001BFF4F7AF6A
:1002B000090728BFA0E80C5048BF0CC05DF804EB4C
:1002C000890028BF40F8042B08BF704748BF20F8BA
:1002D000022B11F0804F18BF00F8012B70477047B8
:1002E00070477047754600F02BF8AE46050069462A
:1002F000534620F00700854618B020B5FFF768FF89
:10030000BDE820404FF000064FF000074FF0000816
:100310004FF0000BAC46ACE8C009ACE8C009ACE853
:10032000C009ACE8C00921F007018D46704710B53F
:100330000446AFF300802046BDE81040FFF733BF0E
:10034000004870471800002001491820ABBEFEE7A6
:100350002600020070470000B0B5044600688168BE
:10036000C90709D0816821F00101816001F002F81C
:1003700021688968C90701D10020B0BD054602E0A7
:100380008068C007F8D000F0F5FF411B2068032902
:10039000F6D38168C907F3D0A06A40F01000A062CC
:1003A000E06A40F00100E0620120B0BD0146406A11
:1003B000826A12F0500F03D0006A026B08461047A1
:1003C0000168826A42F400728262896801F46021E5
:1003D000B1F5602F01D1017B11B100F01BBA00BF54
:1003E000816A21F480718162816AC90448BF00F08A
:1003F00011BA816A41F00101816200F00BBA00007C
:10040000406A816A41F040018162C16A41F00401A1
:10041000C16200F003BA0000406A00F0FDB90000BC
:10042000B0B582B004460020019021688A68D207E6
:100430004BD1886840F00100886040F21000C2F2A1
:10044000000000684DF68361C4F21B31A0FB01017E
:10045000880C01900198A0B1019801380190019891
:1004600078B1019801380190019850B10198013894
:100470000190019828B10198013801900198002855
:10048000EAD100F077FF21688968C9071CD10546C9
:1004900003E000BF8068C00716D100F06BFF411B6E
:1004A00020680329F6D38168C907F3D1A06A40F018
:1004B0001000A062E06A40F00100E062002084F8D1
:1004C0002400012002B0B0BD002002B0B0BD000089
:1004D000FEE7000040F25810C2F2000000F0B4BB8A
:1004E00070470000EFF3108072B600BFFEE7000017
:1004F00070B542F20C060446C4F2020600F03AFF60
:100500003168C9071CD13068800644BF20203060A4
:100510003068C00607D43069C00704D1306840078E
:100520005CBF002070BD3068C00640F23020C2F2CF
:10053000000021D400213268520725D42AE000BFF0
:10054000C4B10546601C10D13068C007DBD03068EC
:10055000C0071CBF30685FEAC070D4D03068C007E5
:10056000F2D1D0E73068C007CDD000F003FF401BC8
:10057000A042F7D9032070BDC16941F00201C161F9
:1005800010213268520705D5C26941F0040142F0DA
:100590000102C2613269D20702D10120316070BD0F
:1005A000C26942F00402C261306920F0010030618A
:1005B0000120316070BD000070B582B0044600209B
:1005C000019094F82400012802D1022002B070BDED
:1005D000012084F824002046FFF7BEFE2046FFF7E6
:1005E0001FFF28B1002184F8241002B070BD00BFA5
:1005F0000646A06A41F2021188430230A06240F22E
:100600001000C2F200000568022000F06FFFB5FB89
:10061000F0F0400001900198A8B100BF01980138A6
:100620000190019878B1019801380190019850B17A
:10063000019801380190019828B101980138019082
:1006400001980028EAD12068816841F008018160A2
:1006500000F090FE21688A6812070FD4886840F085
:100660000400886000F086FE21688968490715D477
:1006700001216FF00302304622E000BF054602E090
:1006800088680007EAD500F075FE401B21680B283A
:10069000F6D388680007F3D50EE000BF054602E0F8
:1006A00080684007E4D500F065FE411B20680B29F7
:1006B000F6D381684907F3D5012010216FF01202AB
:1006C000A36A1A401143A162002184F8241002B0E9
:1006D00070BD000070B581B00022009290F8242017
:1006E000012A03D10221084601B070BD4A680123E6
:1006F000062A02EB820E80F8243007D8D0F800C01A
:100700006FF004030CF134060CE000BFD0F800C019
:100710000C2A87BF0CF12C066FF040030CF1300659
:100720006FF022030EEB03021F23346803FA02F575
:100730000B6824EA050503FA02F22A433260092B0A
:1007400003EB43021AD9DCF80C601E3A07258968CE
:100750009540AE43914023F001023143102ACCF87A
:100760000C1015D142F20041C4F201018C4517D0A2
:10077000816A41F02001816201210AE0DCF8103039
:10078000072689689640B34391401943CCF810106E
:100790000021002280F82420084601B070BD00BF6F
:1007A00089680902F4D4DCF80810102B41F4000128
:1007B000CCF80810ECD140F21001C2F20001096837
:1007C0004DF68362C4F21B32A1FB0212910C01EBC5
:1007D00081014900009100990029D9D0009901397F
:1007E000009100990029D3D0009901390091009916
:1007F0000029CDD000990139009100990029C7D076
:10080000009901390091009900294FF00001E5D1CC
:10081000BFE700007047000070470000704700000D
:10082000002804BF01207047B0B50446806A28B193
:1008300021688868C0070CD115E000BF0020E06285
:1008400084F82400204600F097F821688868C007E3
:1008500009D0886820F00100886000F08BFD2168D5
:100860008A68D20726D1A06AC0063AD4A06A41F2AB
:10087000021290430230A062E069D4E9013240EAFA
:10088000030C531EB3FA83F35D091346B2F5807F60
:1008900018BF2B02207D257B01284CEA45002CD176
:1008A00035B3A56A45F02005A562E56A45F0010566
:1008B000E56222E0054602E08868C007D3D000F078
:1008C00059FD401B21680328F6D38868C007F3D080
:1008D000A06A40F01000A062E06A40F00100E0620F
:1008E000A06AA06A40F01000A0620120B0BD00BF65
:1008F000A56903EB4533A3F5C0534D68B2F5807F7E
:1009000025F4694543EA05034B608B684FF2FD759A
:10091000CFF6E17503EA050343EA00038B6001D0DB
:10092000012A07D122690023CFF6F07303EB0252AC
:1009300001E000BF0022CB6A23F470031A43CA62AD
:10094000896840F6FE62CFF61F721140814207D1DE
:100950000020E062A16A012262F30101A162B0BD40
:10096000A06A40F0100020F00200A062E06A40F0AF
:100970000100E0620120B0BD70B586B0044640F6CB
:100980000000C4F20100216800F5E0520026914207
:100990000596CDE90366029602D006B070BD00BF91
:1009A00041F21801C4F202010A6842F400720A60BE
:1009B0000A6802F400720192019A0A6842F0040285
:1009C0000A60096801F00401019101993021029146
:1009D0000321039102A900F0BFFB40F25815082043
:1009E000C2F20005C4F202004FF48072C5E90006AD
:1009F00005F1100080214FF480634FF0200C80E857
:100A00000C102846C5E90261EE6100F0EDF90028FE
:100A100018BFFFF767FD25626C6206B070BD00006D
:100A2000F0B581B0036842F60006C4F20106B34295
:100A300005D042F20046C4F20106B3420AD142F2A6
:100A40000443C4F201031B6813F4702F02D0012089
:100A500001B0F0BD90F82430012B03D1022001B089
:100A6000F0BD00BF0D460121174680F82410064650
:100A7000FFF7D6FC30B1002086F82400012001B039
:100A8000F0BD00BF42F204403168B36AC4F2010015
:100A9000324640F60176B34300F57F7603F5807366
:100AA000B142936244D0906A20F48010906248680A
:100AB000400504D5906A012363F30D309062936A78
:100AC0000020DB044FF0000344BFD36A23F0060389
:100AD000D36282F82400106A40F2AD3340F2194626
:100AE000C0F60003C0F6000640F20144C0F6000460
:100AF000C0E90A366FF0020304630B608B6814468A
:100B000043F480738B604C312A463B4600F0AEF9CB
:100B10002068816801F460228168B2F5602F0CBF03
:100B200041F4A00141F480118160002001B0F0BDCA
:100B3000036813F4702FB6D0936A43F48013936262
:100B400000684005B6D4BAE7014690F821000228B3
:100B500016D10868D1E90FC3026822F00E020260C4
:100B6000026822F001020260012000FA03F2CCF8D0
:100B7000042081F821000020002281F82020704705
:100B8000042088630120002281F8202070470000A3
:100B900090F82110022923D1026840F2040C116858
:100BA000C4F2020C21F00E01116013682F21C4F26F
:100BB00002018A4223F00103136015DD3023C4F2E1
:100BC00002039A421CD04423C4F202039A421BD06F
:100BD0005823C4F202039A421CD14FF4803321E01F
:100BE00004218163012070470823C4F202039A4262
:100BF0000ED01C23C4F202039A420BD1102311E041
:100C00004FF480730EE000BF4FF480530AE000BF42
:100C1000012307E00CF168014FF080738A4208BF9E
:100C20004FF480130121CCF8003080F82110416B83
:100C30000022002980F8202004BF0020704780B5E2
:100C40008847002080BD000010B5D0E90FCE0168B4
:100C5000DCF800300A6823FA0EF35C072AD512F09C
:100C6000040427D00A68920603D40A6822F004021A
:100C70000A602F22C4F20202914240F20402C4F23E
:100C800002025BDD3023C4F20203994272D0442396
:100C9000C4F20203994273D05823C4F2020399426A
:100CA00040F07A804FF480231360C16A002940F03D
:100CB00098806FE09C0727D512F0020424D00A68C0
:100CC000920606D40A6822F00A020A60012280F81D
:100CD00021202F22C4F20202914240F20402C4F207
:100CE00002023BDD3023C4F20203994260D0442368
:100CF000C4F2020399425FD05823C4F2020399421E
:100D000060D14FF4003365E01B0743D512F00802B1
:100D100008BF10BD0A6822F00E020A60012101FA24
:100D20000EF2CCF80420816380F82110016B0022C0
:100D3000002980F8202054D12CE000BF0823C4F201
:100D40000203994222D01C23C4F20203994223D108
:100D500040231360C16A002943D11BE00823C4F279
:100D6000020399422CD01C23C4F20203994229D1D8
:100D700020232FE04FF480631360C16A89BB09E030
:100D80004FF480431360C16A59BB03E0042313602E
:100D9000C16A31BB10BD00BF02F168044FF080632F
:100DA000A14208BF4FF480031360C16AC9B9F1E7DB
:100DB0004FF400730EE000BF4FF400530AE000BF91
:100DC000022307E002F168044FF00073A14208BF5C
:100DD0004FF400131360816A0022002980F820205C
:100DE000D8D0BDE810400847014600284FF0010068
:100DF00008BF70472DE9F043D1F800C04FF6F873F3
:100E0000CBF6FD734CF6CD426344CCF6CC42A3FB4B
:100E100002236FF0030202EA93020023C4F20203EA
:100E200001F10C08C1E90F320222D1E9019E98E8D4
:100E3000F00181F82120DCF8002043F6F0739A439A
:100E400042EA090242EA0E0222432A4332433A436B
:100E500042EA0802CCF8002000228A6381F82100CF
:100E600081F820200020BDE8F043704790F820C0B2
:100E7000BCF1010F04BF02207047F0B54FF0010E26
:100E800080F820E090F821C0BCF1010F26D14FF08E
:100E9000020C80F821C04FF0000CC0F838C0D0E937
:100EA00000C4C56AC66BDCF80070102C27F001077F
:100EB000CCF80070006C0EFA00F070600846CCF8B8
:100EC000043004BF10460A46CCF80800CCF80C20C9
:100ED000DCF8000045B140F00E000DE0002180F884
:100EE00020100220F0BD00BF20F00400CCF800006C
:100EF000DCF8000040F00A00CCF80000DCF800004C
:100F000040F00100CCF800000020F0BD2DE9F043D6
:100F100081B040F23025C2F200052A7E012A03D1B9
:100F2000022001B0BDE8F08304460120266828763F
:100F30004CF250308846FFF7DBFA022E1CD1002815
:100F40004ED1002042F21004E861C4F2020420688D
:100F500040F004002060206840F0400020604CF227
:100F60005030FFF7C5FA216821F00401216000210B
:100F7000297601B0BDE8F08390BB4FF0FF30C8F890
:100F80000000D4E9027007EB8020874228D242F2A9
:100F90001006C4F202064FF0000900BFC5F81C900D
:100FA000306840F0020030607760306840F0400008
:100FB00030604CF25030FFF79BFA316821F00201AB
:100FC000316098B9D4E9020107F5806700EB812010
:100FD0008742E3D300200021297601B0BDE8F083E9
:100FE00001200021297601B0BDE8F083C8F8007027
:100FF0000021297601B0BDE8F083000042F2100123
:10100000C4F20201086840F0800200200A607047C4
:101010002DE9F04381B040F23027C2F200071646B6
:101020003A7E012A04D1022001B0BDE8F08300BF5E
:101030000546012038764CF250300C469946FFF7B1
:1010400057FA28B10021397601B0BDE8F08300BF1E
:1010500042F210080020C4F20208F861D8F800003B
:1010600040F00100C8F800004CF250302680FFF735
:101070003FFAD8F80010002821F00101C8F800104C
:1010800018BF0046DED1012DDCD00020F861D8F871
:101090000000310C40F00100C8F800004CF2503064
:1010A0006180FFF725FAD8F80010002821F001012F
:1010B000C8F80010C6D1E81E10F1030F4FF0000071
:1010C000C0D8F861D8F8000040F00100C8F800006E
:1010D0004CF25030A4F80490FFF70AFAD8F8001048
:1010E000002821F00101C8F80010ABD10020F86100
:1010F000D8F800004FEA194140F00100C8F800009C
:101100004CF25030E180FFF7F3F9D8F800100028D6
:1011100021F00101C8F8001018BF004600213976FF
:1011200001B0BDE8F083000042F20400C4F2020006
:10113000C16809065CBF0020704740F22311C4F269
:101140006751016048F6AB11CCF6EF510160C06801
:10115000C0B2C009704700002DE9F04F82B00E68A0
:10116000002E00F0FD8041F20042C4F2010204238F
:1011700040F2004E904208BF03234FF6FF7CC4F2BA
:10118000010E009300240123C1F2100C4FF0000A5D
:101190004FF000094BE000BF41F20002C4F201022F
:1011A000009F904208BF022704F00C030F229A40D0
:1011B0002BEA020207FA03F34FEA9A051A4346F8AC
:1011C00025204E6840F20C45F202DEF8082054BF9C
:1011D00022EA080242EA0802C4F20105CEF8082019
:1011E0002A68B30254BF22EA080242EA08022A60CF
:1011F000B303DEF8042054BF22EA080242EA0802E0
:10120000F303CEF80420DEF800204FF0010354BFB2
:1012100022EA080242EA0802CEF800200E680AF12B
:10122000010A36FA0AF204F1040400F0998003FA84
:101230000AFB16EA0B08F1D04E68664512DC122E46
:1012400056D8DFE806F0350B4D49555555555555DF
:101250005555555555555545510000BFD1F80C9081
:1012600046E000BF4FF6FF72C1F2210296420FDC4A
:101270000022C1F2110296421AD00022C1F21202DB
:10128000964215D00022C1F22102964210D02FE0E2
:101290000022C1F2220296420AD00022C1F231029B
:1012A000964205D00022C1F23202964220D100BF00
:1012B0008A684AB1012A14BFC0F814B0C0F810B04F
:1012C0004FF0080914E000BF4FF0040910E000BF20
:1012D000CA6802F104090BE04FF0000908E000BF02
:1012E000CA6802F1080903E0CA6802F10C0900BFEC
:1012F00002462646B8F5807F24BF0432203E176898
:101300000F25B54027EA050509FA06F635431560AD
:10131000CA79D2067FF582AF41F21803C4F2020304
:101320001A68AEF57E7642F001021A601A6802F081
:1013300001020192019A2AF0030256F802B040F627
:101340000002C4F20102904208D040F60042C4F20A
:10135000010290427FF420AF012725E7002723E711
:1013600002B0BDE8F08F00008068084018BF01207F
:101370007047000040F2A020C2F2000000687047F1
:1013800040F2080040F2A021C2F20000C2F20001C7
:1013900000780A68104408607047000080B542F287
:1013A0000000C4F20200016841F010010160032056
:1013B00000F08CF80F2000F005F800F027F800206E
:1013C00080BD000070B540F20806C2F2000640F28F
:1013D00010013278C2F200014FF47A730968B3FB4E
:1013E000F2F20446B1FBF2F1084600F083FC0F2C48
:1013F0004FF0010508D838B94FF0FF3021460022E0
:10140000002500F037F87460284670BD82B041F2C4
:101410001800C4F202000168022241F001010160DB
:10142000016801F0010101910199416841F0805189
:101430004160406800F08050009000980420C4F2A1
:101440000100016862F31A61016002B07047000098
:10145000002848BF704700F01F01012202FA01F185
:101460001C2202EAD0004EF20012CEF2000281509D
:101470007047000010B54EF60C5CCEF2000CDCF8A4
:101480000030C3F3022E8EF00704042C28BF04247E
:10149000BEF103034FF0FF3E0EFA04F438BF002301
:1014A000A14399400EFA03F39A43114300F00F024F
:1014B00000F160430901043A03F5644362440028E3
:1014C00048BF02F10C03197010BD00004EF60C511C
:1014D000CEF200010A684FF6FF031A4060F30A22B9
:1014E00042F0806040F0FD7008607047012821D014
:1014F00002280DD0102808D141F20401C4F20201E3
:101500000A6851F8040CC00134D40020704700BFB1
:1015100080B500F0DBF941F20401C4F20201096870
:101520000222C1F3813102EB4101B0FBF1F0BDE8D1
:101530008040704741F20400C4F20200C16940F2E9
:1015400002320A40B2F5817F04BF4FF40040704779
:1015500001F44071B1F5407F18D0B1F5007F1CBF98
:1015600000207047006A49F64041800701EAE070B8
:10157000704700BFC2F3834015A3185CD2030DD49B
:1015800040F60012C0F23D02504313E050F8040C44
:101590004FF22441800301EAE07070470A6810A30B
:1015A000C2F340429A5C41F20023C0F27A03B3FBDB
:1015B000F2F250430968490248BF70474AF6AB212E
:1015C0004000CAF6AA21A0FB01014808704700BFED
:1015D00002030405060708090A0B0C0D0E0F101074
:1015E000010200002DE9F04182B00446007841F28A
:1015F0001C06C007C4F202064AD030685FEAC00881
:1016000008D4306840F080503060306800F080507E
:101610000190019847F20007C4F200073868C0053E
:1016200012D4386840F480703860FFF7A3FE054696
:101630003868C00508D4FFF79DFE401B6428F7D921
:10164000032002B0BDE8F081706810F4407012D041
:10165000616801F4407188420DD0706840F24042E8
:10166000C4F24222012320F4407113600023C0071A
:101670001360716026D17068616820F4407008437F
:10168000B8F1000F706003D4306820F080503060F3
:101690002068810707D556F8181CA26821F440413C
:1016A000114346F8181CC00607D556F8180CE16817
:1016B00020F48000084346F8180C002002B0BDE872
:1016C000F08100BFFFF756FE054641F2883700BFA4
:1016D00070688007CFD4FFF74DFE401BB8424FF033
:1016E0000300F5D9EAE70000002804BF0120704795
:1016F0002DE9F04381B042F20008C4F2020804462A
:10170000D8F800000D4600F0070081420CD9D8F847
:10171000000020F007002843C8F80000D8F80000B7
:1017200000F00700A8426CD1206841F2040981074B
:10173000C4F2020917D5410705D5D9F8001041F4C4
:10174000E061C9F80010010705D5D9F8001041F48F
:101750006051C9F80010D9F80010A26821F0F0011A
:101760001143C9F80010C00742D1D8F8000000F0BA
:10177000070085420CD2D8F8000020F0070028436B
:10178000C8F80000D8F8000000F00700A84238D1DF
:101790002068410707D5D9F80010E26821F4E0611C
:1017A0001143C9F80010000708D5D9F800002169D5
:1017B00020F4605040EAC100C9F80000D9F80020C8
:1017C00002F00C00082841F20020C0F27A004DD14E
:1017D00043F6C053C2F38341C0F60003595CD20301
:1017E00038D440F60010C0F23D0048433EE000BF50
:1017F000606859F8041C022808D0012826D1890302
:1018000006D4012001B0BDE8F08300BF8901F8D5FE
:10181000D9F8001021F003010843C9F80000FFF7D0
:10182000A9FD064641F28837D9F80000616800F04A
:101830000C00B0EB810F98D0FFF79CFD801BB842E5
:10184000F2D9032001B0BDE8F08300BF8907D8D5E5
:10185000DEE700BFD9F8002043F6BE53C2F3404292
:10186000C0F600039A5C4843B0FBF2F0D9F80010D0
:1018700043F6A652C1F30311C0F60002515C40F2D8
:10188000100220FA01F140F20C00C2F200000068E0
:10189000C2F200021160FFF795FD002001B0BDE823
:1018A000F083000040F2100041F20401C2F2000097
:1018B000C4F202010068096843F6B652C1F302217E
:1018C000C0F60002515CC8407047000040F21000B2
:1018D00041F20401C2F20000C4F20201006809688A
:1018E00043F6B652C1F3C221C0F60002515CC840B3
:1018F00070470000002804BF012070472DE9F04127
:1019000082B00446007841F20006C007C4F2020625
:101910000CD0706800F00C00042840F08180306822
:10192000800303D56068002800F046812078800796
:101930001BD5706810F00C0F09D0706800F00C0017
:10194000082840F087807068C00300F18380306809
:10195000800703D52069012840F02E813068616935
:1019600020F0F80040EAC10030602078000713D46E
:10197000207840072CD4E569002D00F018817068AC
:1019800000F00C00082840F0A780012D40F00481F1
:10199000012002B0BDE8F081A069002800F0848039
:1019A0000020C4F242200121C0F88014FFF7E2FCBD
:1019B000054600BF706A800700F1B280FFF7DAFCCD
:1019C000401B0228F6D9032002B0BDE8F08100BF19
:1019D000F0695FEAC00808D4F06940F08050F06117
:1019E000F06900F080500090009847F20007C4F2C0
:1019F00000073868C00549D4386840F48070386002
:101A0000FFF7B8FC054600BF3868C0053ED4FFF7B5
:101A1000B1FC401B6428F7D9032002B0BDE8F08177
:101A2000706800F00C00082803D17068C0033FF50F
:101A300076AF61683068002900F00C81B1F5A02F05
:101A400000F00081B1F5803F40F01A8140F4803011
:101A50001CE100BF2069002840F20000C4F24220CF
:101A600000F0888001210160FFF784FC054600BF7B
:101A7000306880073FF572AFFFF77CFC401B0228FF
:101A8000F6D9032002B0BDE8F08100BFE168306AFA
:101A9000002900F09D80052900F09280012940F086
:101AA000AF8040F00100B1E00020C4F242200021EC
:101AB000C0F88014FFF75EFC054600BF706A80071F
:101AC0007FF556AFFFF756FC401B0228F6D90320DE
:101AD00002B0BDE8F08100BF0027C4F24227002019
:101AE0003866FFF747FC022D05460DD130688001AE
:101AF00040F1DE80FFF73EFC401B02284FF0030060
:101B0000F4D902B0BDE8F081306880014FD5FFF70D
:101B100031FC401B02284FF00300F5D9F1E700BF6C
:101B200040F21000C2F20000006844F6D351C1F246
:101B30006201A0FB0101480A019000BF00BF0198AB
:101B4000411E002801913FF413AF00BF0198411ED0
:101B5000002801913FF40CAF00BF0198411E0028FE
:101B600001913FF405AF00BF0198411E002801918B
:101B7000E4D1FDE600210160FFF7FCFB054600BF54
:101B8000306880077FF5F1AEFFF7F4FB401B0228B9
:101B90004FF00300F4D9B4E77068216A00F4803292
:101BA0008A4209D1616A00F47010884204D1002091
:101BB00002B0BDE8F08100BF012002B0BDE8F081B5
:101BC00040F004003062306A40F001001EE000BFC7
:101BD00020F001003062306A20F004003062FFF72C
:101BE000C9FB054641F28837306A800720D5FFF7E8
:101BF000C1FB401BB8424FF00300F5D981E700BF9D
:101C000020F001003062306A20F004003062FFF7FB
:101C1000B1FB054641F28837306A800708D4FFF7E8
:101C2000A9FB401BB842F7D9032002B0BDE8F08100
:101C3000B8F1000F3FF59FAEF06920F08050F061E1
:101C400099E600BF40F480203060306840F4803076
:101C50001CE000BF20F480303060306820F4802029
:101C60003060FFF787FB0546306880037FF55EAE86
:101C7000FFF780FB401B64284FF00300F4D940E7D6
:101C800020F480303060306820F480203060FFF72E
:101C900071FB0546306880033FF548AEFFF76AFBED
:101CA000401B6428F6D9032002B0BDE8F08100BFD4
:101CB000206AB0F5803F05D17168A26821F4003137
:101CC000114371607168626A21F474111143084311
:101CD000706001203866FFF74DFB044630688001D4
:101CE0003FF565AFFFF746FB001B02284FF00300EE
:101CF000F4D906E7411E0020B0EB116F1CBF012094
:101D000070474EF21002CEF2000251604EF623519F
:101D1000CEF20001F0230B70072190601160704734
:101D200090F83C20012A4FF0020236D010B580F81E
:101D30003D200268D2F804E0D2F808C00C682EF00A
:101D40007003234340F2FF74C4F20004A2425360C4
:101D50000ADCB2F1804F13D040F20043C4F200031A
:101D60009A420DD011E000BF42F60043C4F20103D5
:101D70009A4205D040F60003C4F200039A4204D10F
:101D800049682CF08003194391600121002280F8FA
:101D90003D1080F83C20BDE8104010467047000020
:101DA000002804BF0120704710B590F83D1031B9EC
:101DB000002180F83C10044600F070F82046022113
:101DC00080F83D10016840F2FF740B68C4F2000413
:101DD00042F6004CA142C4F2010C15DCB1F1804F77
:101DE0001AD040F20042C4F20002914214D0A14243
:101DF00018DCB1F1804F1DD040F20042C4F2000265
:101E0000914217D01AE000BF614505D040F60002AC
:101E1000C4F200029142EAD1826823F070031343B6
:101E2000A142E6DD614505D040F60002C4F20002A1
:101E3000914203D1026923F440731343846923F070
:101E40008002D0F804E0C368224361450A60CB6297
:101E5000C1F828E002D14269CCF8302001224A6161
:101E60000B69DB0703D00B6923F001030B6180F8DA
:101E7000462080F83E2080F83F2080F8402080F8FF
:101E8000412080F8422080F8432080F8442080F8E8
:101E9000452080F83D20002010BD000082B0006881
:101EA00040F20041C4F20001884211D0B0F1804FED
:101EB0001BD141F21C00C4F20200016841F0010193
:101EC0000160006800F001000190019802B07047C5
:101ED00041F21C00C4F20200016841F002010160FD
:101EE000006800F002000090009802B07047000007
:101EF00090F83C20012A4FF002026CD080B580F8A7
:101F00003D20D0F800C04FF67772DCF8083023EAA5
:101F10000202CCF808200B684F2B29DC1F2B45DD73
:101F2000202B46D0302B44D0402B40F0AF80D1F84E
:101F300004E0C968DCF82030DCF8202022F001023F
:101F4000CCF82020DCF8182022F0F00242EA01113F
:101F500023F00A0242EA0E02CCF81810CCF8202036
:101F6000DCF8081041F0470121F0300128E000BF03
:101F70006F2B33DDB3F5005F74D0B3F5805F21D0F4
:101F8000702B40F08380D1E901E3C968DCF80820B8
:101F900043EA0E0322F47F4243EA01211143CCF8C5
:101FA0000810DCF8081041F0770109E00BB1102BA4
:101FB0006CD1DCF8081021F07001194341F00701E1
:101FC000CCF808100022012180F83D10002180F893
:101FD0003C10BDE880401046704700BF502B21D018
:101FE000602B53D1D1F804E0C968DCF82030DCF86C
:101FF000202022F01002CCF82020DCF8182022F457
:10200000704242EA013123F0A00242EA0E12CCF8FB
:102010001810CCF82020DCF8081041F0670121F0FE
:102020001001CDE7D1F804E0C968DCF82030DCF815
:10203000202022F00102CCF82020DCF8182022F029
:10204000F00242EA011123F00A0242EA0E02CCF841
:102050001810CCF82020DCF8081041F0570121F0CE
:102060002001ADE7D1E901E3C968DCF8082043EAC3
:102070000E0322F47F4243EA01211143CCF80810F9
:10208000DCF8081041F480419AE700BF01229AE78A
:1020900070B586B0006840F20045C4F20005A84261
:1020A0004FF00000CDE90400CDE9020002D006B0F7
:1020B00070BD00BF41F21800C4F20200016802AC1A
:1020C00041F0040101600168022601F00401019160
:1020D0000199016841F0080101600068214600F0A3
:1020E0000800019001988020029005F58230039647
:1020F0000596FFF731F805F584302146CDE90266F3
:102100000596FFF729F806B070BD000090F83C3046
:10211000012B04BF022070474FEAB202032A00F2EB
:10212000F1802DE9F043DFE802F003A53B7500BF25
:10213000036842F600461D6A1A6AC4F2010622F0DC
:1021400001021A621A465C6852F818CFB3428E68D0
:10215000D1F800E025F0020545EA06050CD1CE686D
:10216000D1E9057824F4407425F00C0526F0040626
:102170003C43354344EA08042CF0730747EA0E0752
:102180005C609F614F6809695F631D629F6947F0EA
:1021900008079F619F6927F004079F61A6E000BFC1
:1021A000036842F600461D6A1A6AC4F2010622F468
:1021B00080721A621A46D3F804C052F81CEFB34278
:1021C0008E680C6825F4007545EA06250FD1CE68A7
:1021D000D1E90598360240F2FF4725F44065BE4339
:1021E00035432CF4405748EA090647EA061C2EF00E
:1021F00073072743C3F804C0DF614F680969DF63D1
:102200001D62DF6947F00807DF61DF6927F0040717
:10221000DF616BE0036842F60047D3F820C01A6A1A
:10222000C4F2010722F480521A621A465C6852F81E
:102230001C5FD1F800E08E68BB4204D14F6924F4E2
:10224000804444EA87142CF4005747EA063725F403
:10225000E64646EA0E265C60DE614E6809691E6449
:102260001F62DF6947F40067DF61DF6927F4806779
:10227000DF613AE0036842F600461D6A1A6AC4F25A
:10228000010622F010021A621A46D3F804C052F86E
:10229000184FB3428E68D1F800E025F0200545EADA
:1022A00006150FD1CE68D1E905986FF0400725F0EB
:1022B000C00507EA061635432CF4406748EA0906CC
:1022C00047EA860C24F4E64444EA0E27C3F804C027
:1022D0009F614F6809699F631D629F6947F40067AA
:1022E0009F619F6927F480679F6109021368194302
:1022F00011600021BDE8F043002280F83C20084630
:10230000704700BF0121002280F83C20084670473A
:10231000002804BF0120704710B590F83D1031B976
:10232000002180F83C10044600F070F8204602219D
:1023300080F83D10016840F2FF740B68C4F200049D
:1023400042F6004CA142C4F2010C15DCB1F1804F01
:102350001AD040F20042C4F20002914214D0A142CD
:1023600018DCB1F1804F1DD040F20042C4F20002EF
:10237000914217D01AE000BF614505D040F6000237
:10238000C4F200029142EAD1826823F07003134341
:10239000A142E6DD614505D040F60002C4F200022C
:1023A000914203D1026923F440731343846923F0FB
:1023B0008002D0F804E0C368224361450A60CB6222
:1023C000C1F828E002D14269CCF8302001224A61EC
:1023D0000B69DB0703D00B6923F001030B6180F865
:1023E000462080F83E2080F83F2080F8402080F88A
:1023F000412080F8422080F8432080F8442080F873
:10240000452080F83D20002010BD000070470000EE
:10241000C1B1042908D0082914BF41224022825C9E
:10242000012A05D016E000BF3F22825C012A11D1AB
:102430000222082910D0042914BF80F8412080F816
:102440003F200BE090F83E20012A03D1022280F8C1
:102450003E2003E00120704780F84020006801F032
:102460001F010122036A8A4023EA02010162036A12
:1024700042F64441C4F201011A43A1F144039842D7
:1024800002620FD040F2FF71C4F20001884213DCF7
:10249000B0F1804F1CD040F20041C4F200018842EC
:1024A00016D01CE00A6842F400420A6040F2FF7154
:1024B000C4F200018842EBDD42F60041C4F20101A2
:1024C000884205D040F60001C4F20001884206D1DE
:1024D000816801F00701062904BF002070470168E8
:1024E00041F00101016000207047000070470000CA
:1024F00070470000B0B582B001680A68CC684B69CB
:1025000002F02F05202D04F0200505D125B102B0E1
:10251000BDE8B04000F064BF5FEA027C1EBF03F07C
:10252000010E04F4907313EB0E0341D1036BD50637
:1025300018D5012B16D114F0100313D000220192EC
:102540000A6801924A680192019A496949064BD486
:10255000818DC28DC38D002B18BF914240F0F48154
:1025600002B0B0BD13062DD514F080032AD090F828
:102570004120212AF4D18268B2F5805F03D102693B
:10258000002A00F06782026A531C036212784A60D4
:10259000C28C013A1304C284E2D1C86820F08000E2
:1025A000C860C86840F04000C86002B0B0BD00BF5D
:1025B000D30718BF14F4807340F0D080530700F1A4
:1025C000D380D8E05206CBD514F04002C8D0CA68F8
:1025D00022F04002CA60202180F8411002B0BDE81C
:1025E000B04000F083BB00BFC16B0A68526893B271
:1025F000002BB5D0858DAB42B2D2C2858969202926
:1026000000F0A180016851E8031F026821F4807185
:1026100042E80313DBB1016851E8031F026821F4AB
:10262000807142E8031393B1016851E8031F026807
:1026300021F4807142E803134BB1016851E8031F94
:10264000026821F4807142E80313002BDAD101689B
:1026500051E8051F026821F0010142E80513C3B3E8
:10266000016851E8051F026821F0010142E80513E5
:102670007BB3016851E8051F026821F0010142E8BF
:10268000051333B3016851E8051F026821F0010109
:1026900042E80513002BDAD11BE000BF016851E8C6
:1026A000051F026821F0400142E80513DBB1016813
:1026B00051E8051F026821F0400142E8051393B17B
:1026C000016851E8051F026821F0400142E8051346
:1026D0004BB1016851E8051F026821F0400142E852
:1026E0000513002BDAD1202180F84210002101636C
:1026F000016851E8031F026821F0100142E803134A
:10270000DBB1016851E8031F026821F0100142E8C3
:10271000031393B1016851E8031F026821F010010F
:1027200042E803134BB1016851E8031F026821F02E
:10273000100142E80313002BDAD1C16B04460846AE
:10274000FEF702FA204602214163818DC28D891A6B
:1027500089B202B0BDE8B040FFF7C8BE436C43F099
:1027600001034364530706D5BEF1000F03D0436C49
:1027700043F002034364930706D5BEF1000F03D074
:10278000436C43F004034364BCF1000F06D55EEADA
:10279000050303D0436C43F008034364436C002BF0
:1027A0003FF4DEAE920605D525B1044600F018FED2
:1027B000216820464969426C01F0400102F008029C
:1027C000891800F0B98000BF016851E8031F026852
:1027D00021F4907142E80313BBB3016851E8031F71
:1027E000026821F4907142E8031373B3016851E861
:1027F000031F026821F4907142E803132BB30168B0
:1028000051E8031F026821F4907142E80313002B82
:10281000DAD11AE0016851E8051F026821F00101D0
:1028200042E80513DBB1016851E8051F026821F099
:10283000010142E8051393B1016851E8051F0268E0
:1028400021F0010142E805134BB1016851E8051F71
:10285000026821F0010142E80513002BDAD1016B77
:10286000012924D1016851E8031F026821F01001F9
:1028700042E80313DBB1016851E8031F026821F04D
:10288000100142E8031393B1016851E8031F026885
:1028900021F0100142E803134BB1016851E8031F16
:1028A000026821F0100142E80313002BDAD1202145
:1028B00080F842100021016301684969490640F12E
:1028C000C380016851E8051F026821F0400142E819
:1028D0000513DBB1016851E8051F026821F04001D2
:1028E00042E8051393B1016851E8051F026821F021
:1028F000400142E805134BB1016851E8051F026829
:1029000021F0400142E80513002BDAD1C16B002908
:1029100000F09A8043F2D532C0F600020446084621
:102920004A63FEF735F900283FF41AAEE06B416BBD
:1029300002B0BDE8B04008470446FFF7D9FD0020CB
:10294000606402B0B0BD00BF891A00BF026852E8DF
:10295000032F036822F4907243E80325BDB3026895
:1029600052E8032F036822F4907243E8032575B3FD
:10297000026852E8032F036822F4907243E80325AB
:102980002DB3026852E8032F036822F4907243E8E3
:102990000325002DDAD11AE0026852E8052F0368FA
:1029A00022F0010243E80525DDB1026852E8052F57
:1029B000036822F0010243E8052595B1026852E858
:1029C000052F036822F0010243E805254DB1026896
:1029D00052E8052F036822F0010243E80525002D87
:1029E000DAD1202280F8422000220263026852E8F5
:1029F000032F036822F0100243E80325DDB10268CB
:102A000052E8032F036822F0100243E8032595B132
:102A1000026852E8032F036822F0100243E80325FE
:102A20004DB1026852E8032F036822F0100243E818
:102A30000325002DDAD1022289B2426302B0BDE83B
:102A4000B040FFF753BD00BF02B0BDE8B040FFF794
:102A50004FBD00BF026A32F8023B6FF35F234B6049
:102A6000026295E5002804BF0120704710B50446B6
:102A700090F8410028B9002084F84000204600F07A
:102A800063F8242084F841002068D4E90212C36866
:102A900023F40053C360036923F440531A430261D3
:102AA000D4E904231143C268194341F20C639A43E9
:102AB0001143C1604169A26921F44071114343F699
:102AC0000002C4F201029042416103D0FEF7EAFE27
:102AD00002E000BFFEF7FAFED4E9002319214843C3
:102AE0009900B0FBF1F048F21F5CC5F2EB1CA0FBB3
:102AF0000C314FF69C734909C0F6FF7301FB0300CC
:102B0000322303EB0010A0FB0C03F02000EA53106B
:102B100000EB0110C3F343110844906010692021B9
:102B200020F490401061506920F02A005061D06874
:102B300040F40050D0600020606484F8411084F8B4
:102B40004210606310BD000070B586B040F600040E
:102B5000C4F20104006804F540510026884205963D
:102B6000CDE90366029601D006B070BD41F21800AF
:102B7000C4F20200016802AD41F4804101600168C5
:102B800001F4804101910199016841F00401016063
:102B90000068294600F00400019001984FF400708D
:102BA000029002200390032005902046FEF7D4FAFD
:102BB0004FF48060CDE90206204629460496FEF7D0
:102BC000CBFA252000210022FEF754FC2520FEF739
:102BD0003FFC06B070BD000090F84230202B07D1BA
:102BE00000294FF0010318BF002A05D1184670478D
:102BF00002231846704700BF00230363816222212D
:102C00008285C285436480F842100169006819B169
:102C1000C16841F48071C160416941F001014161C5
:102C2000C16841F02001C16018467047006843F652
:102C30000001C4F20101884218BF704740F2780CCD
:102C4000C2F2000C9CF800100D2942D00A2931D1A3
:102C500080B59CF801E0BEF1000F24D09CF8020082
:102C600008BB0022542300BF1CF80300A0F13A0166
:102C700011F10A0F17D302EB820100EB4100A0F122
:102C8000300290B2B42805D8A3F15301714503F185
:102C90000103E9D3B52806D29CF80300002804BF3D
:102CA000501CACF81E000020ACF80100BDE88040CC
:102CB0000FE000BF9CF80100122807D8421C6044B6
:102CC0008CF8012080F8541003E000BF01208CF83C
:102CD000020040F2E000C2F2000040F27801303021
:102CE000C2F200010122FFF777BF00007047000029
:102CF000FEE700002DE9F04381B0FEF73BFB40F218
:102D00007801C2F200010B8C4F8CA3F6CB06B6B251
:102D10004FF60B65A7F6CB040022AE424FF000063B
:102D2000A4B20A7138BF0126AC424FF0000538BF8B
:102D300001252E434E71CD78BDB1002E00F0FF80ED
:102D400000260125CE700D718E71C1E90A66A1F8C9
:102D50000760EFF31085EFF3108472B6CC8BCE834F
:102D600085F31088A0F10F064E62EFF31086EFF3A3
:102D7000108572B6CD8BCA8340F2000846F6174E16
:102D800040F2E41C86F31088C2F20008C1F2C16E62
:102D9000C2F2000CE5B16C1E4FF4FA6504FB05F6B7
:102DA000B608A6FB0E62C8F8004000248C62CC7105
:102DB0004FF4FA74DCF8006004EB92023264D8F845
:102DC00004206A439208A2FB0E2504EB9502B2632D
:102DD0004A6A821A0F2AC0F0B280486240F2D66076
:102DE0000026834238BF4FF0FF3640F6CA008342C8
:102DF00088BF0126C879F2B282424FF000004EF639
:102E0000784546F2676918BF8862BCB23006CFF6D3
:102E1000FF75C6F26669CE7130D040F6CA0240F244
:102E2000D3679342C3F5FA6288BF40F2357788BF13
:102E3000A3F5FA6202EB820205EB820292FBF7F243
:102E40008B6AD8F800001A440A3282FB0937BB109B
:102E500003EBD77303EB830703FB0603A2EB4702E5
:102E6000B42B8A62C8F8003002DDB42304E000BF4E
:102E7000B3F1FF3F04DC0023C8F800300020886273
:102E800040F2D6600026844238BF4FF0FF3640F64D
:102E9000CA00844288BF0126087AF2B282424FF00B
:102EA000000318BFCB62D8F8043030060E722DD064
:102EB00040F6CA0040F2D3628442C4F5FA6088BF8B
:102EC00040F2357288BFA4F5FA6000EB800005EB94
:102ED000800090FBF2F0CA6A10440A3080FB09249B
:102EE000A21002EBD47202FB063302EB8204A0EBC9
:102EF0004400B42BC862C8F8043001DDB42303E0F9
:102F0000B3F1FF3F04DC0023C8F804300020C8629E
:102F1000D8F800004FF4FA6148438008A0FB0E0285
:102F200003FB01F08008A0FB0E014FF4FA70DCF8FF
:102F3000003000EB920200EB91001A64986301B03C
:102F4000BDE8F083FEE70000FEE7000070470000E8
:102F5000704700002DE9F04FB3B040F60045C4F2D1
:102F60000105FEF707FA834628464FF40041FEF7B5
:102F7000FBF940F2780AC2F2000A9AF80C10884273
:102F80001CBF8AF80C00CAF830B09AF810108842BA
:102F90000CD0DAF83010ABEB01011E2906D38AF809
:102FA00010000138B0FA80F0470900E000272846F9
:102FB0004FF48041FEF7D8F99AF8141088421CBFEC
:102FC0008AF81400CAF834B09AF81810884221D050
:102FD000DAF83410ABEB01011E291BD3411E8AF82D
:102FE000180018BF01219AF80300C0B99AF804002C
:102FF000002840F0BE81002F00F06B819AF81B0082
:10300000002800F0CD809AF81A40132C40F2CE80B0
:103010005FE100BF01219AF803000028E6D09AF88A
:103020000600DAF838100028ABEB010040D0DAF8DF
:103030003C10884280F08080DAF84020ABEB02023E
:10304000142AC0F096810AF144078CCFDAF8505068
:10305000434393FBF1F3684390FBF1F01A444FF4C0
:10306000FA6102FB01F346F6174538449B08C1F2AA
:10307000C1654143A3FB05348908A1FB051340F258
:103080000001C2F20001C1E9002040F2E411C2F2E5
:1030900000014FF4FA70096800EB940200EB930012
:1030A000CAF840B00A64886333B0BDE8F08F00BF4F
:1030B00040F2EE218842C0F05C819AF819009AF83B
:1030C0001A10421CD0B288428AF8192080F054812C
:1030D00040F20001C2F20001D1E9002340F2502188
:1030E000C2F2000101EB800731F820007F88811ACD
:1030F000A7EB0300CAE91121CAE9133048BF4942CE
:10310000002848BF4042814288BF08464FF47A7188
:10311000414348F21F52C731C5F2EB12A1FB021224
:103120009109002818BF01208AF80600CAE90EB1EB
:10313000CAF840B0002018E19AF8190040F2502176
:10314000C2F2000101EB800231F8200051884FF4F7
:10315000FA6242F6835700FB02F3C0F2D827A3FBC2
:1031600007354A43A2FB072340F20002C2F20002E5
:10317000C2E9000140F2E411C2F200014FF4FA701A
:10318000096800EB550200EB53000A6488630020D5
:103190008AF80600CAF838B033B0BDE8F08F00BF37
:1031A000002401208AF819408AF81B0040F2000030
:1031B000C2F2000040F250270191C2F2000703C89A
:1031C00007EB84020DF1740927F82400518004F103
:1031D000010809F1060052218AF81A80FDF736F835
:1031E00045F25071C0F2010100201D915FFA88F193
:1031F000032C08F0030C0490ADF8781016D36FF090
:103200000C0000EA88020023002000BFF958FC18D7
:1032100009EB0305A9606168A668E46810339A4267
:1032200000F10400E9602E616C61EFD1BCF1000F88
:1032300016D057F8202009EB8003BCF1010F9A60EB
:103240000ED0421C57F8223009EB8202BCF1020F6B
:10325000936005D0023057F8201009EB80008160A0
:103260000DF17409484600F043F9ADF87A000220E8
:103270008AF81C00FDF758FF50BB42F20C00C4F264
:1032800002003421016000204FF600480390012025
:10329000C0F60008069003A802A9CDF81480FDF737
:1032A00035FE98B908F10207012400BF39F814204F
:1032B000012039460023FDF7ABFE2A2C04D8013447
:1032C000002807F10207F1D0002861D0FDF796FE33
:1032D00001999AF81A00C0B2B0FA80F04009084388
:1032E00047D19AF80500002843D1EFF31081EFF39E
:1032F000108072B601208AF8030000208AF81B00B3
:10330000AAF81E0081F3108840F20001C2F2000109
:10331000D1E9003740F25021C2F200010A88498801
:10332000D21AA1EB07018AF81900CAE91132CAE9D9
:10333000137148BF5242002948BF49428A4288BFA0
:1033400011464FF47A724A4348F21F53C732C5F20E
:10335000EB13A2FB03239A09002918BF01218AF865
:103360000610CAE90EB2CAF840B0CAE90A00AAF8C3
:10337000070033B0BDE8F08F00208AF80300AAF8F8
:103380000700CAE909B0CAF82C0033B0BDE8F08FD5
:10339000BDF87420012041460023FDF739FE0746A1
:1033A000FDF72CFE002F93D107A800F00FF900289D
:1033B0008ED01DA807A95822FCF71CFF00287FF417
:1033C00087AF01208AF81C0082E70000FDF7D8BF14
:1033D00070470000406A0021C185C184FFF788B8AA
:1033E00081B090F84210222921D183680246B3F5BA
:1033F000805F09D152F8281F52F8183C002B63D087
:1034000003685B680AE000BF52F8281F13B903691C
:10341000002BF5D003685B6803F07F030B70116825
:1034200001311160C18D01390A04C18502D001B09A
:10343000704700BF0168CA6822F02002CA60CA68EB
:1034400022F48072CA604A6922F001024A61202196
:1034500080F8421000214163026B012A3CD10163D4
:10346000016851E8031F026821F0100142E80313CC
:10347000DBB1016851E8031F026821F0100142E846
:10348000031393B1016851E8031F026821F0100192
:1034900042E803134BB1016851E8031F026821F0B1
:1034A000100142E80313002BDAD101680A68D20642
:1034B00006D5002200920A6800924968009100999E
:1034C000818D01B0FFF712B8026852686FF35F2276
:1034D00021F8022B8162A5E701B0FFF7A7BB00002E
:1034E00040F21010C2F20000FFF704B8FEE700003F
:1034F00010B500F1020C4FF6FF70002141F22102DD
:1035000003E000BF01312B295ED00229FAD03CF83C
:1035100011E080EA0E2003B280B24400002B48BFC5
:1035200082EA400482EA4400230458BF600082EA31
:103530004003040458BF430082EA43001C0458BF00
:10354000580082EA4003040458BF430082EA430063
:103550001C0458BF580082EA4003040458BF4300CB
:1035600082EA43001C0458BF58002EF0FF03584065
:1035700003B280B24400002B48BF82EA400482EAD2
:103580004400230458BF600082EA4003040458BF8B
:10359000430082EA43001C0458BF580082EA4003FB
:1035A000040458BF430082EA43001C0458BF58007B
:1035B00082EA4003040458BF430082EA43001C042B
:1035C00058BF58009EE700BF80B210BD70B54FF6DF
:1035D0000041C0F600010A8845F2507302804A8813
:1035E00042808A888280CA88C2800A8902814A8988
:1035F00042818A898281CA89C2810A8A02824A8A70
:1036000042828A8A8282CA8AC2820A8B02834A8B57
:1036100042838A8B8283CA8BC2830A8C02844A8C3F
:1036200042848A8C8284CA8CC2840A8D02854A8D27
:1036300042858A8D8285CA8DC2850A8E02864A8E0F
:1036400042868A8E8286CA8EC2860A8F02874A8FF7
:1036500042878A8F8287CA8FC287B1F84020A0F83C
:103660004020B1F84220A0F84220B1F84420A0F850
:103670004420B1F84620A0F84620B1F84820A0F830
:103680004820B1F84A20A0F84A20B1F84C20A0F810
:103690004C20B1F84E20A0F84E20B1F85020A0F8F0
:1036A0005020B1F85220A0F85220B1F85420A0F8D0
:1036B0005420B1F856100288A0F856109A4213D13F
:1036C0004188012910D18488142C0DD8C68805465C
:1036D000FFF70EFF864207D144B12889B42803D8EA
:1036E00068892946B52803D3002070BD012070BD2C
:1036F000601EB0FA80F04FEA5010F6D08A89B42AE2
:10370000F3D8CA89B42AF0D80020032C38BF01208E
:10371000022CEAD00A8AB42AE7D84A8AB42AE4D822
:103720000020042C38BF0120032CDED0898AB42964
:10373000DBD8E98AB429D8D80020052C38BF01206D
:10374000042CD2D0298BB429CFD8698BB429CCD8FA
:103750000020062C38BF0120052CC6D0A98BB42927
:10376000C3D8E98BB429C0D80020072C38BF01206A
:10377000062CBAD0298CB429B7D8698CB429B4D80E
:103780000020082C38BF0120072CAED0A98CB4290A
:10379000ABD8E98CB429A8D80020092C38BF012067
:1037A000082CA2D0298DB4299FD8698DB4299CD822
:1037B00000200A2C38BF0120092C3FF496AFA98DB8
:1037C000B4293FF692AFE98DB4293FF68EAF0020C1
:1037D0000B2C38BF01200A2C3FF487AF298EB42967
:1037E0003FF683AF698EB4293FF67FAF00200C2CE3
:1037F00038BF01200B2C3FF478AFA98EB4293FF6D7
:1038000074AFE98EB4293FF670AF00200D2C38BF9D
:1038100001200C2C3FF469AF298FB4293FF665AF26
:10382000698FB4293FF661AF00200E2C38BF01200C
:103830000D2C3FF45AAFA98FB4293FF656AFE98F4C
:10384000B4293FF652AF00200F2C38BF01200E2CB8
:103850003FF44BAFB5F84010B4293FF646AFB5F88A
:103860004210B4293FF641AF0020102C38BF012090
:103870000F2C3FF43AAFB5F84410B4293FF635AFFA
:10388000B5F84610B4293FF630AF0020112C38BFF0
:103890000120102C3FF429AFB5F84810B4293FF6A9
:1038A00024AFB5F84A10B4293FF61FAF0020122C00
:1038B00038BF0120112C3FF418AFB5F84C10B429D3
:1038C0003FF613AFB5F84E10B4293FF60EAF002007
:1038D000132C38BF0120122C3FF407AFB5F850105D
:1038E000B4293FF602AFB5F85210B4293FF6FDAE49
:1038F000B4F1140018BF0120132C3FF4F6AEB5F854
:103900005410B42988BF70BDB4F1140018BF012051
:10391000B5F856100022B52938BF0122104370BDFA
:10392000A2B0FDF73BFD00240120CDE91144CDE913
:103930000F440C9010904FF4E0104FF480310225AA
:1039400015900CA80594CDE90344CDE90D14CDE9FB
:103950001351FDF7CFFF28B1EFF3108072B600BF0F
:10396000FEE700BF0F20CDE906054FF48060CDE9EA
:10397000090406A802210894FDF7B6FE20B1EFF372
:10398000108072B6FEE700BF02274FF4004802A87D
:103990000297CDF81080FDF725FE28B1EFF31080D7
:1039A00072B600BFFEE700BF002641F21804CDE961
:1039B0000E66CDE90C66C4F20204206840F60049A8
:1039C00040F0200020602068C4F2010900F02000CF
:1039D0000690069820680CAD40F004002060206836
:1039E000294600F0040006900698206840F0080080
:1039F0002060206800F00800069006984FF44060B0
:103A0000CDE90C0648460E96FDF7A6FB4FF4804024
:103A10000CA9C1C148462946FDF79EFB012748462F
:103A20002946CDE90C860E97FDF796FB48462946B8
:103A3000CDE90C860E97FDF78FFB54F8040C00219E
:103A400040F0010044F8040C54F8040C002200F08B
:103A500001000C900C980B20FDF70CFD0B20FDF7DE
:103A6000F7FC40F2E410A9F58431C2F2000044F6FC
:103A70001F630996CDE90766CDE90266CDE91166B7
:103A8000CDE90F66472280E84600C0E9033686612B
:103A9000FEF786F920B1EFF3108072B6FEE700BFA3
:103AA0004FF48050069040F2E410C2F2000006A9E4
:103AB000FEF71EFA20B1EFF3108072B6FEE700BFEA
:103AC00040F2E410C2F20000FEF722FC20B1EFF356
:103AD000108072B6FEE700BF40F2E410C2F20000B0
:103AE00002A9FEF71DF928B1EFF3108072B600BFEE
:103AF000FEE700BF60200C900020CDE90D00109083
:103B000040F2E410C2F200000CA90422FEF7FEFA13
:103B100020B1EFF3108072B6FEE700BF40F2E41070
:103B2000C2F200000CA90C22FEF7F0FA20B1EFF36C
:103B3000108072B6FEE700BF40F2E415C2F2000545
:103B40002846FEF7A5FA40F29C100021C2F20000C0
:103B50004FF08042472344F61F670F91CDE90D11C6
:103B6000CDE90611C0E90023C0E9021701618161B6
:103B7000FEF716F920B1EFF3108072B6FEE700BF32
:103B80004FF480500C9040F29C10C2F200000CA93F
:103B9000FEF7AEF920B1EFF3108072B6FEE700BF7A
:103BA00040F29C10C2F2000006A9FEF7B9F818B165
:103BB000EFF3108072B6FEE740F2E006C2F20006B4
:103BC00009F53051304640F8301F4FF4E131002400
:103BD0000C22C0E90114C0E90344C0E90524C46112
:103BE000FEF740FF20B1EFF3108072B6FEE700BF92
:103BF00009F5C050C6E9000402204FF48071012786
:103C00004FF460223061304637733475F261B16031
:103C1000FCF706FE20B1EFF3108072B6FEE700BF9E
:103C20000420CDE90C0740F2E0000524C2F20000B8
:103C30000CA90E94FCF74EFD20B1EFF3108072B684
:103C4000FEE700BF40F2E0080220C2F200080D903B
:103C50000CA940460C94FCF73DFD18B1EFF3108021
:103C600072B6FEE740F2780AC2F2000A00200DF1B7
:103C7000300B8AF81A005846FFF7A8FC002841D0FC
:103C8000BDF83410C8B28AF81A10D8B340F2502EDA
:103C900000F003018208C2F2000E019118D0130156
:103CA000002400220BEB04018E680EEB0407C868A9
:103CB000D1F810C049694EF804601034A34202F1F3
:103CC00004027860C7F808C0F960EBD101E000BFDA
:103CD00000220198B0B10BEB8200019980680129A4
:103CE0004EF822000ED0501C0BEB8001019B89681E
:103CF000022B4EF8201005D0901C0BEB8001896838
:103D00004EF820104046FCF757FC0AF120014046CF
:103D10000222FCF785FE40F20000C2F2000003C858
:103D20004FF4FA62504346F617438008C1F2C1636C
:103D3000A0FB030701FB02F08008A0FB03014FF486
:103D4000FA702A6800EB970300EB9100136490630C
:103D500028460421FEF75CFB28460C21FEF758FBA1
:103D600048464FF40041FDF7FFFA8AF810008AF840
:103D70000C0048464FF48041FDF7F6FA8AF8180027
:103D80008AF81400FDF7F6FACAF82400CAE90C0014
:103D900008F1300051460122FEF71EFFFEF7AAFF90
:103DA000FFF7D8F8FAE70000000000000000010269
:103DB00003040607080900000000010203040102D1
:103DC00002030405060708090A0B0C0D0E0F10105C
:103DD000F03D00080000002018000000500100081D
:103DE000083E00081800002090080000700100083C
:103DF0005A0000005A0000000100000010000000FE
:083E000000127A00000000002E
:04000005080000ED02
:00000001FF
