:020000040800F2
:10000000E0070020C5010008AD2A0008A52A000865
:10001000A92A0008DD050008D92B0008000000000F
:10002000000000000000000000000000B52A0008E9
:10003000ED05000800000000B12A0008B92A0008F8
:10004000DF010008DF010008DF010008DF01000810
:10005000DF010008DF010008DF010008DF01000800
:10006000DF010008DF010008DF010008E1050008EA
:10007000DF010008DF010008DF010008DF010008E0
:10008000DF010008DF010008DF010008DF010008D0
:10009000DF010008DF010008DF010008DF010008C0
:1000A000DF010008DF010008DF010008DF010008B0
:1000B000DF010008DF010008DF010008DF010008A0
:1000C000DF010008DF010008DF010008DF01000890
:1000D000DF010008CD2B0008DF010008DF01000868
:1000E000DF010008DF010008DF01000800F002F86E
:1000F00000F059F814A696E8000CB244B344DA456F
:1001000001D100F050F8BAE80F000FA696E83000D1
:10011000A5EB040504EB0607AAEB0704A7F101070A
:100120004FEA15154FEA3414A4F10104AC4201D38F
:1001300000F039F813F0010F18BFFB1A43F0010368
:1001400000F001F8DBE71847D42F0000F42F00007F
:10015000103A24BF78C878C1FAD8520724BF30C8F3
:1001600030C144BF04680C60704700007047000055
:100170000023002400250026103A28BF78C1FBD8B0
:10018000520728BF30C148BF0B6070471FB500F051
:1001900005F904000020002102F094FF401C60607B
:1001A0001FBD10B510BD00F0D4F81146FFF7EEFFEB
:1001B00002F014FD00F004F903B4FFF7F2FF03BCF2
:1001C00000F048F90948804709480047FEE7FEE784
:1001D000FEE7FEE7FEE7FEE7FEE7FEE7FEE7FEE7F7
:1001E00004480549054A064B70470000BD2A00082F
:1001F000ED000008E0010020E0070020E0030020FF
:10020000E003002070B5064600F00CF804680546CF
:1002100030460A22002100F009F82C6070BD7047BA
:100220007047704700487047100000202DE9F047E4
:1002300091460F4680460446002614F8015B2DB116
:1002400000F030F80068405DC007F6D12B2D02D0D9
:100250002D2D18D0641E4A463946204600F02AF853
:1002600027B13968A14201D1C7F800804FF00204DC
:1002700071050BD54042002803DDFFF7D3FF046072
:10028000A007BDE8F08746F48066E4E70028F8DAC6
:10029000FFF7C8FF04606FF00040F2E700487047C6
:1002A0001000002010B500F079F8001D10BD00BF4F
:1002B000152E00002DE9F05F824615468B4600277B
:1002C0000AF10104B9460078302801D09DB113E04D
:1002D00014F8010B0127782803D0582801D045B124
:1002E0000AE00DB1102D07D1002714F8010B1025DD
:1002F00002E0082500E00A250026B0460EE005FBD6
:10030000080005FB06F101271FFA80F801EB1046F3
:10031000B6F5803F00D3B94614F8010B294600F02A
:1003200041F80028EBDABBF1000F05D00FB1641ED5
:1003300000E05446CBF80040B9F1000F06D0FFF7BB
:1003400071FF02210160C81EBDE8F09F48EA064027
:10035000FAE77546FFF7A2FFAE4605006946534629
:1003600020F00700854618B020B5FFF739FFBDE83B
:1003700020404FF000064FF000074FF000084FF00C
:10038000000BAC46ACE8C009ACE8C009ACE8C00959
:10039000ACE8C00921F007018D467047004870475E
:1003A000300000203A2800D2303820F02002412AC4
:1003B00001D3A2F13700884201D34FF0FF307047DC
:1003C00010B50446AFF300802046BDE81040FFF7AB
:1003D000F3BE00004FF0013C50F8042B51F8043BF1
:1003E0009A4221D1A2EB0C03934313EACC1317D109
:1003F00050F8042B51F8043B9A4215D1A2EB0C03A0
:10040000934313EACC130BD150F8042B51F8043B5F
:100410009A4209D1A2EB0C03934313EACC13DBD02D
:100420004FF00000704700BFD01A01BAB1FA81F155
:1004300001F0180122FA01F0CB40DBB2C0B2C01AC1
:10044000C1F120012CFA01F3D11A914311EAC31131
:10045000E6D1704701491820ABBEFEE72600020036
:1004600070470000B0B5044600688168C90709D02C
:10047000816821F00101816000F072FE21688968C5
:10048000C90701D10020B0BD054602E08068C00761
:10049000F8D000F065FE411B20680329F6D381687F
:1004A000C907F3D0A06A40F01000A062E06A40F0F3
:1004B0000100E0620120B0BD0146406A826A12F08C
:1004C000500F03D0006A026B084610470168826A29
:1004D00042F400728262896801F46021B1F5602FF4
:1004E00001D1017B11B100F0B7B900BF816A21F4DD
:1004F00080718162816AC90448BF00F0ADB9816A28
:1005000041F00101816200F0A7B90000406A816AF0
:1005100041F040018162C16A41F00401C16200F012
:100520009FB90000406A00F099B90000B0B582B0F0
:1005300004460020019021688A68D2074BD1886860
:1005400040F00100886040F20800C2F2000000683C
:100550004DF68361C4F21B31A0FB0101880C0190B0
:100560000198A0B1019801380190019878B10198E3
:1005700001380190019850B101980138019001981B
:1005800028B101980138019001980028EAD100F0C3
:10059000E7FD21688968C9071CD1054603E000BF53
:1005A0008068C00716D100F0DBFD411B20680329DD
:1005B000F6D38168C907F3D1A06A40F01000A062A9
:1005C000E06A40F00100E062002084F8240001208D
:1005D00002B0B0BD002002B0B0BD0000FEE70000D8
:1005E00040F2BC00C2F2000000F050BB70470000B7
:1005F000EFF3108072B600BFFEE7000070B582B066
:1006000004460020019094F82400012802D1022021
:1006100002B070BD012084F824002046FFF722FFBD
:100620002046FFF783FF28B1002184F8241002B090
:1006300070BD00BF0646A06A41F202118843023035
:10064000A06240F20800C2F200000568022000F03B
:1006500043FEB5FBF0F0400001900198A8B100BF47
:10066000019801380190019878B101980138019002
:10067000019850B1019801380190019828B1019872
:100680000138019001980028EAD12068816841F082
:100690000801816000F064FD21688A6812070FD4A8
:1006A000886840F00400886000F05AFD216889687D
:1006B000490715D401216FF00302304622E000BF44
:1006C000054602E088680007EAD500F049FD401BB6
:1006D00021680B28F6D388680007F3D50EE000BF29
:1006E000054602E080684007E4D500F039FD411B73
:1006F00020680B29F6D381684907F3D50120102122
:100700006FF01202A36A1A401143A162002184F81B
:10071000241002B070BD000070B581B000220092BC
:1007200090F82420012A03D10221084601B070BDAF
:100730004A680123062A02EB820E80F8243007D88B
:10074000D0F800C06FF004030CF134060CE000BFD9
:10075000D0F800C00C2A87BF0CF12C066FF04003C4
:100760000CF130066FF022030EEB03021F233468F6
:1007700003FA02F50B6824EA050503FA02F22A439C
:100780003260092B03EB43021AD9DCF80C601E3AE5
:10079000072589689540AE43914023F0010231431B
:1007A000102ACCF80C1015D142F20041C4F201011C
:1007B0008C4517D0816A41F02001816201210AE055
:1007C000DCF81030072689689640B34391401943FE
:1007D000CCF810100021002280F82420084601B037
:1007E00070BD00BF89680902F4D4DCF80810102B32
:1007F00041F40001CCF80810ECD140F20801C2F23B
:10080000000109684DF68362C4F21B32A1FB02129B
:10081000910C01EB81014900009100990029D9D088
:1008200000990139009100990029D3D0009901392C
:10083000009100990029CDD00099013900910099CB
:100840000029C7D0009901390091009900294FF083
:100850000001E5D1BFE700007047000070470000CD
:1008600070470000002804BF01207047B0B504465F
:10087000806A28B121688868C0070CD115E000BFE4
:100880000020E06284F82400204600F097F82168F8
:100890008868C00709D0886820F00100886000F0EF
:1008A0005FFC21688A68D20726D1A06AC0063AD4C4
:1008B000A06A41F2021290430230A062E069D4E9DA
:1008C000013240EA030C531EB3FA83F35D09134669
:1008D000B2F5807F18BF2B02207D257B01284CEAD2
:1008E00045002CD135B3A56A45F02005A562E56A1F
:1008F00045F00105E56222E0054602E08868C00790
:10090000D3D000F02DFC401B21680328F6D3886863
:10091000C007F3D0A06A40F01000A062E06A40F087
:100920000100E062A06AA06A40F01000A06201200D
:10093000B0BD00BFA56903EB4533A3F5C0534D68B7
:10094000B2F5807F25F4694543EA05034B608B6867
:100950004FF2FD75CFF6E17503EA050343EA0003A4
:100960008B6001D0012A07D122690023CFF6F073F2
:1009700003EB025201E000BF0022CB6A23F47003B4
:100980001A43CA62896840F6FE62CFF61F721140B0
:10099000814207D10020E062A16A012262F30101D5
:1009A000A162B0BDA06A40F0100020F00200A06279
:1009B000E06A40F00100E0620120B0BD70B586B091
:1009C000044640F60000C4F20100216800F5E05240
:1009D000002691420596CDE90366029602D006B044
:1009E00070BD00BF41F21801C4F202010A6842F46E
:1009F00000720A600A6802F400720192019A0A68A1
:100A000042F004020A60096801F0040101910199B1
:100A1000302102910321039102A900F099FA40F2DA
:100A2000BC050820C2F20005C4F202004FF4807237
:100A3000C5E9000605F1100080214FF480634FF0F6
:100A4000200C80E80C102846C5E90261EE6100F038
:100A5000EDF9002818BFFFF7CBFD25626C6206B0E8
:100A600070BD0000F0B581B0036842F60006C4F224
:100A70000106B34205D042F20046C4F20106B34279
:100A80000AD142F20443C4F201031B6813F4702F2D
:100A900002D0012001B0F0BD90F82430012B03D129
:100AA000022001B0F0BD00BF0D460121174680F8BD
:100AB00024100646FFF73AFD30B1002086F82400E6
:100AC000012001B0F0BD00BF42F204403168B36ABA
:100AD000C4F20100324640F60176B34300F57F765A
:100AE00003F58073B142936244D0906A20F4801081
:100AF00090624868400504D5906A012363F30D3085
:100B00009062936A0020DB044FF0000344BFD36A75
:100B100023F00603D36282F82400106A40F2B9433E
:100B200040F22556C0F60003C0F6000640F20D5410
:100B3000C0F60004C0E90A366FF0020304630B60DC
:100B40008B68144643F480738B604C312A463B46D5
:100B500000F0AEF92068816801F460228168B2F586
:100B6000602F0CBF41F4A00141F48011816000208E
:100B700001B0F0BD036813F4702FB6D0936A43F44C
:100B80008013936200684005B6D4BAE7014690F836
:100B90002100022816D10868D1E90FC3026822F0AB
:100BA0000E020260026822F001020260012000FAD7
:100BB00003F2CCF8042081F821000020002281F803
:100BC00020207047042088630120002281F8202023
:100BD0007047000090F82110022923D1026840F2EA
:100BE000040C1168C4F2020C21F00E0111601368AC
:100BF0002F21C4F202018A4223F00103136015DDA4
:100C00003023C4F202039A421CD04423C4F20203EC
:100C10009A421BD05823C4F202039A421CD14FF4CB
:100C2000803321E004218163012070470823C4F24E
:100C300002039A420ED01C23C4F202039A420BD143
:100C4000102311E04FF480730EE000BF4FF4805387
:100C50000AE000BF012307E00CF168014FF0807348
:100C60008A4208BF4FF480130121CCF8003080F88D
:100C70002110416B0022002980F8202004BF0020B1
:100C8000704780B58847002080BD000010B5D0E9CE
:100C90000FCE0168DCF800300A6823FA0EF35C0717
:100CA0002AD512F0040427D00A68920603D40A68F1
:100CB00022F004020A602F22C4F20202914240F2A2
:100CC0000402C4F202025BDD3023C4F20203994243
:100CD00072D04423C4F20203994273D05823C4F261
:100CE0000203994240F07A804FF480231360C16A76
:100CF000002940F098806FE09C0727D512F002048D
:100D000024D00A68920606D40A6822F00A020A6011
:100D1000012280F821202F22C4F20202914240F2E7
:100D20000402C4F202023BDD3023C4F20203994202
:100D300060D04423C4F2020399425FD05823C4F226
:100D40000203994260D14FF4003365E01B0743D59D
:100D500012F0080208BF10BD0A6822F00E020A60F5
:100D6000012101FA0EF2CCF80420816380F82110F1
:100D7000016B0022002980F8202054D12CE000BF14
:100D80000823C4F20203994222D01C23C4F20203B6
:100D9000994223D140231360C16A002943D11BE04B
:100DA0000823C4F2020399422CD01C23C4F202038C
:100DB000994229D120232FE04FF480631360C16A48
:100DC00089BB09E04FF480431360C16A59BB03E05B
:100DD00004231360C16A31BB10BD00BF02F1680477
:100DE0004FF08063A14208BF4FF480031360C16AD3
:100DF000C9B9F1E74FF400730EE000BF4FF40053A0
:100E00000AE000BF022307E002F168044FF000731C
:100E1000A14208BF4FF400131360816A0022002929
:100E200080F82020D8D0BDE81040084701460028AF
:100E30004FF0010008BF70472DE9F043D1F800C022
:100E40004FF6F873CBF6FD734CF6CD426344CCF607
:100E5000CC42A3FB02236FF0030202EA93020023B9
:100E6000C4F2020301F10C08C1E90F320222D1E9F8
:100E7000019E98E8F00181F82120DCF8002043F67B
:100E8000F0739A4342EA090242EA0E0222432A43DD
:100E900032433A4342EA0802CCF8002000228A6337
:100EA00081F8210081F820200020BDE8F043704740
:100EB00090F820C0BCF1010F04BF02207047F0B5CC
:100EC0004FF0010E80F820E090F821C0BCF1010F36
:100ED00026D14FF0020C80F821C04FF0000CC0F872
:100EE00038C0D0E900C4C56AC66BDCF80070102CAD
:100EF00027F00107CCF80070006C0EFA00F070606B
:100F00000846CCF8043004BF10460A46CCF8080066
:100F1000CCF80C20DCF8000045B140F00E000DE0EC
:100F2000002180F820100220F0BD00BF20F0040056
:100F3000CCF80000DCF8000040F00A00CCF800001B
:100F4000DCF8000040F00100CCF800000020F0BD0B
:100F50002DE9F04F82B00E68002E00F0FD8041F2C6
:100F60000042C4F20102042340F2004E904208BF46
:100F700003234FF6FF7CC4F2010E009300240123EB
:100F8000C1F2100C4FF0000A4FF000094BE000BF17
:100F900041F20002C4F20102009F904208BF022702
:100FA00004F00C030F229A402BEA020207FA03F323
:100FB0004FEA9A051A4346F825204E6840F20C4540
:100FC000F202DEF8082054BF22EA080242EA0802D0
:100FD000C4F20105CEF808202A68B30254BF22EA01
:100FE000080242EA08022A60B303DEF8042054BF74
:100FF00022EA080242EA0802F303CEF80420DEF8EF
:1010000000204FF0010354BF22EA080242EA08021E
:10101000CEF800200E680AF1010A36FA0AF204F14D
:10102000040400F0998003FA0AFB16EA0B08F1D0D9
:101030004E68664512DC122E56D8DFE806F0350BF6
:101040004D49555555555555555555555555554574
:10105000510000BFD1F80C9046E000BF4FF6FF7280
:10106000C1F2210296420FDC0022C1F21102964227
:101070001AD00022C1F21202964215D00022C1F20B
:101080002102964210D02FE00022C1F222029642A5
:101090000AD00022C1F23102964205D00022C1F2EC
:1010A0003202964220D100BF8A684AB1012A14BF99
:1010B000C0F814B0C0F810B04FF0080914E000BF39
:1010C0004FF0040910E000BFCA6802F104090BE008
:1010D0004FF0000908E000BFCA6802F1080903E008
:1010E000CA6802F10C0900BF02462646B8F5807FA7
:1010F00024BF0432203E17680F25B54027EA0505B6
:1011000009FA06F635431560CA79D2067FF582AF33
:1011100041F21803C4F202031A68AEF57E7642F07B
:1011200001021A601A6802F001020192019A2AF083
:10113000030256F802B040F60002C4F201029042E7
:1011400008D040F60042C4F2010290427FF420AF82
:10115000012725E7002723E702B0BDE8F08F000054
:1011600040F2D810C2F200000068704740F2000060
:1011700040F2D811C2F20000C2F2000100780A6801
:10118000104408607047000080B542F20000C4F2CD
:101190000200016841F010010160032000F08CF8AA
:1011A0000F2000F005F800F027F8002080BD0000B7
:1011B00070B540F20006C2F2000640F20801327833
:1011C000C2F200014FF47A730968B3FBF2F20446ED
:1011D000B1FBF2F1084600F083FC0F2C4FF0010543
:1011E00008D838B94FF0FF3021460022002500F022
:1011F00037F87460284670BD82B041F21800C4F21E
:1012000002000168022241F001010160016801F061
:10121000010101910199416841F0805141604068AC
:1012200000F08050009000980420C4F20100016892
:1012300062F31A61016002B070470000002848BFE5
:10124000704700F01F01012202FA01F11C2202EA9C
:10125000D0004EF20012CEF2000281507047000022
:1012600010B54EF60C5CCEF2000CDCF80030C3F387
:10127000022E8EF00704042C28BF0424BEF10303C1
:101280004FF0FF3E0EFA04F438BF0023A14399400B
:101290000EFA03F39A43114300F00F0200F160438A
:1012A0000901043A03F564436244002848BF02F18F
:1012B0000C03197010BD00004EF60C51CEF2000167
:1012C0000A684FF6FF031A4060F30A2242F080607A
:1012D00040F0FD7008607047012821D002280DD031
:1012E000102808D141F20401C4F202010A6851F841
:1012F000040CC00134D40020704700BF80B500F05A
:10130000DBF941F20401C4F2020109680222C1F3CF
:10131000813102EB4101B0FBF1F0BDE88040704744
:1013200041F20400C4F20200C16940F202320A40F4
:10133000B2F5817F04BF4FF40040704701F4407163
:10134000B1F5407F18D0B1F5007F1CBF0020704779
:10135000006A49F64041800701EAE070704700BF2B
:10136000C2F3834015A3185CD2030DD440F60012DB
:10137000C0F23D02504313E050F8040C4FF22441F8
:10138000800301EAE07070470A6810A3C2F340428C
:101390009A5C41F20023C0F27A03B3FBF2F25043AD
:1013A0000968490248BF70474AF6AB214000CAF6B7
:1013B000AA21A0FB01014808704700BF02030405F1
:1013C000060708090A0B0C0D0E0F10100102000091
:1013D0002DE9F04182B00446007841F21C06C007B6
:1013E000C4F202064AD030685FEAC00808D4306808
:1013F00040F080503060306800F0805001900198DB
:1014000047F20007C4F200073868C00512D43868F4
:1014100040F480703860FFF7A3FE05463868C005C9
:1014200008D4FFF79DFE401B6428F7D9032002B0C3
:10143000BDE8F081706810F4407012D0616801F46A
:10144000407188420DD0706840F24042C4F242229E
:10145000012320F4407113600023C0071360716002
:1014600026D17068616820F440700843B8F1000F1D
:10147000706003D4306820F08050306020688107AD
:1014800007D556F8181CA26821F44041114346F8CC
:10149000181CC00607D556F8180CE16820F4800027
:1014A000084346F8180C002002B0BDE8F08100BFE8
:1014B000FFF756FE054641F2883700BF7068800787
:1014C000CFD4FFF74DFE401BB8424FF00300F5D9D3
:1014D000EAE70000002804BF012070472DE9F0432F
:1014E00081B042F20008C4F202080446D8F80000B5
:1014F0000D4600F0070081420CD9D8F8000020F01A
:1015000007002843C8F80000D8F8000000F00700E2
:10151000A8426CD1206841F204098107C4F2020993
:1015200017D5410705D5D9F8001041F4E061C9F895
:101530000010010705D5D9F8001041F46051C9F831
:101540000010D9F80010A26821F0F0011143C9F889
:101550000010C00742D1D8F8000000F00700854213
:101560000CD2D8F8000020F007002843C8F800008B
:10157000D8F8000000F00700A84238D120684107E1
:1015800007D5D9F80010E26821F4E0611143C9F8E9
:101590000010000708D5D9F80000216920F4605038
:1015A00040EAC100C9F80000D9F8002002F00C00A0
:1015B000082841F20020C0F27A004DD143F20A130C
:1015C000C2F38341C0F60003595CD20338D440F61D
:1015D0000010C0F23D0048433EE000BF606859F88B
:1015E000041C022808D0012826D1890306D4012032
:1015F00001B0BDE8F08300BF8901F8D5D9F800102B
:1016000021F003010843C9F80000FFF7A9FD0646D1
:1016100041F28837D9F80000616800F00C00B0EBA7
:10162000810F98D0FFF79CFD801BB842F2D90320B0
:1016300001B0BDE8F08300BF8907D8D5DEE700BF61
:10164000D9F8002043F20813C2F34042C0F6000369
:101650009A5C4843B0FBF2F0D9F8001043F2F00274
:10166000C1F30311C0F60002515C40F2080220FAF7
:1016700001F140F20400C2F200000068C2F2000270
:101680001160FFF795FD002001B0BDE8F083000078
:1016900040F2080041F20401C2F20000C4F202016B
:1016A0000068096843F20012C1F30221C0F600028B
:1016B000515CC8407047000040F2080041F204014C
:1016C000C2F20000C4F202010068096843F200128D
:1016D000C1F3C221C0F60002515CC840704700004F
:1016E000002804BF012070472DE9F04182B0044674
:1016F000007841F20006C007C4F202060CD0706800
:1017000000F00C00042840F081803068800303D58D
:101710006068002800F04681207880071BD570683B
:1017200010F00C0F09D0706800F00C00082840F091
:1017300087807068C00300F183803068800703D51C
:101740002069012840F02E813068616920F0F8009E
:1017500040EAC10030602078000713D420784007A9
:101760002CD4E569002D00F01881706800F00C00A1
:10177000082840F0A780012D40F00481012002B02C
:10178000BDE8F081A069002800F084800020C4F248
:1017900042200121C0F88014FFF7E2FC054600BF9B
:1017A000706A800700F1B280FFF7DAFC401B022864
:1017B000F6D9032002B0BDE8F08100BFF0695FEA0E
:1017C000C00808D4F06940F08050F061F06900F082
:1017D00080500090009847F20007C4F20007386874
:1017E000C00549D4386840F480703860FFF7B8FC11
:1017F000054600BF3868C0053ED4FFF7B1FC401B6A
:101800006428F7D9032002B0BDE8F081706800F0C9
:101810000C00082803D17068C0033FF576AF6168FB
:101820003068002900F00C81B1F5A02F00F0008194
:10183000B1F5803F40F01A8140F480301CE100BFD8
:101840002069002840F20000C4F2422000F08880A5
:1018500001210160FFF784FC054600BF3068800766
:101860003FF572AFFFF77CFC401B0228F6D903203E
:1018700002B0BDE8F08100BFE168306A002900F0E5
:101880009D80052900F09280012940F0AF8040F052
:101890000100B1E00020C4F242200021C0F8801411
:1018A000FFF75EFC054600BF706A80077FF556AF04
:1018B000FFF756FC401B0228F6D9032002B0BDE812
:1018C000F08100BF0027C4F2422700203866FFF7EE
:1018D00047FC022D05460DD13068800140F1DE80C5
:1018E000FFF73EFC401B02284FF00300F4D902B082
:1018F000BDE8F081306880014FD5FFF731FC401B17
:1019000002284FF00300F5D9F1E700BF40F20800CC
:10191000C2F20000006844F6D351C1F26201A0FB9C
:101920000101480A019000BF00BF0198411E002834
:1019300001913FF413AF00BF0198411E00280191AF
:101940003FF40CAF00BF0198411E002801913FF405
:1019500005AF00BF0198411E00280191E4D1FDE6CA
:1019600000210160FFF7FCFB054600BF30688007DF
:101970007FF5F1AEFFF7F4FB401B02284FF00300A8
:10198000F4D9B4E77068216A00F480328A4209D140
:10199000616A00F47010884204D1002002B0BDE8F2
:1019A000F08100BF012002B0BDE8F08140F00400EA
:1019B0003062306A40F001001EE000BF20F00100FC
:1019C0003062306A20F004003062FFF7C9FB054640
:1019D00041F28837306A800720D5FFF7C1FB401BF2
:1019E000B8424FF00300F5D981E700BF20F00100B5
:1019F0003062306A20F004003062FFF7B1FB054628
:101A000041F28837306A800708D4FFF7A9FB401BF2
:101A1000B842F7D9032002B0BDE8F081B8F1000F59
:101A20003FF59FAEF06920F08050F06199E600BF6D
:101A300040F480203060306840F480301CE000BF0B
:101A400020F480303060306820F480203060FFF770
:101A500087FB0546306880037FF55EAEFFF780FBAD
:101A6000401B64284FF00300F4D940E720F4803095
:101A70003060306820F480203060FFF771FB05464D
:101A8000306880033FF548AEFFF76AFB401B6428CF
:101A9000F6D9032002B0BDE8F08100BF206AB0F59E
:101AA000803F05D17168A26821F400311143716053
:101AB0007168626A21F47411114308437060012057
:101AC0003866FFF74DFB0446306880013FF565AF8F
:101AD000FFF746FB001B02284FF00300F4D906E78E
:101AE000411E0020B0EB116F1CBF012070474EF269
:101AF0001002CEF2000251604EF62351CEF20001E8
:101B0000F0230B70072190601160704790F83C2023
:101B1000012A4FF0020236D010B580F83D2002684D
:101B2000D2F804E0D2F808C00C682EF0700323430A
:101B300040F2FF74C4F20004A24253600ADCB2F126
:101B4000804F13D040F20043C4F200039A420DD0FC
:101B500011E000BF42F60043C4F201039A4205D0EF
:101B600040F60003C4F200039A4204D149682CF005
:101B70008003194391600121002280F83D1080F814
:101B80003C20BDE81040104670470000002804BF0C
:101B90000120704710B590F83D1031B9002180F850
:101BA0003C10044600F070F82046022180F83D10F9
:101BB000016840F2FF740B68C4F2000442F6004C66
:101BC000A142C4F2010C15DCB1F1804F1AD040F2F1
:101BD0000042C4F20002914214D0A14218DCB1F1DB
:101BE000804F1DD040F20042C4F20002914217D053
:101BF0001AE000BF614505D040F60002C4F20002C1
:101C00009142EAD1826823F070031343A142E6DDDA
:101C1000614505D040F60002C4F20002914203D1B2
:101C2000026923F440731343846923F08002D0F8DF
:101C300004E0C368224361450A60CB62C1F828E032
:101C400002D14269CCF8302001224A610B69DB07DE
:101C500003D00B6923F001030B6180F8462080F864
:101C60003E2080F83F2080F8402080F8412080F816
:101C7000422080F8432080F8442080F8452080F8F6
:101C80003D20002010BD000082B0006840F20041FD
:101C9000C4F20001884211D0B0F1804F1BD141F253
:101CA0001C00C4F20200016841F0010101600068FB
:101CB00000F001000190019802B0704741F21C0051
:101CC000C4F20200016841F002010160006800F006
:101CD00002000090009802B07047000090F83C208D
:101CE000012A4FF002026CD080B580F83D20D0F878
:101CF00000C04FF67772DCF8083023EA0202CCF815
:101D000008200B684F2B29DC1F2B45DD202B46D0EC
:101D1000302B44D0402B40F0AF80D1F804E0C968AC
:101D2000DCF82030DCF8202022F00102CCF8202062
:101D3000DCF8182022F0F00242EA011123F00A0236
:101D400042EA0E02CCF81810CCF82020DCF808107B
:101D500041F0470121F0300128E000BF6F2B33DD57
:101D6000B3F5005F74D0B3F5805F21D0702B40F0E5
:101D70008380D1E901E3C968DCF8082043EA0E0357
:101D800022F47F4243EA01211143CCF80810DCF829
:101D9000081041F0770109E00BB1102B6CD1DCF891
:101DA000081021F07001194341F00701CCF8081028
:101DB0000022012180F83D10002180F83C10BDE890
:101DC00080401046704700BF502B21D0602B53D16C
:101DD000D1F804E0C968DCF82030DCF8202022F0DB
:101DE0001002CCF82020DCF8182022F4704242EADD
:101DF000013123F0A00242EA0E12CCF81810CCF800
:101E00002020DCF8081041F0670121F01001CDE737
:101E1000D1F804E0C968DCF82030DCF8202022F09A
:101E20000102CCF82020DCF8182022F0F00242EA6F
:101E3000011123F00A0242EA0E02CCF81810CCF885
:101E40002020DCF8081041F0570121F02001ADE717
:101E5000D1E901E3C968DCF8082043EA0E0322F463
:101E60007F4243EA01211143CCF80810DCF8081046
:101E700041F480419AE700BF01229AE770B586B02D
:101E8000006840F20045C4F20005A8424FF000008F
:101E9000CDE90400CDE9020002D006B070BD00BF5C
:101EA00041F21800C4F20200016802AC41F00401E2
:101EB00001600168022601F00401019101990168A5
:101EC00041F0080101600068214600F0080001901F
:101ED00001988020029005F5823003960596FFF761
:101EE00037F805F584302146CDE902660596FFF7FF
:101EF0002FF806B070BD000090F83C30012B04BFF5
:101F0000022070474FEAB202032A00F2F1802DE965
:101F1000F043DFE802F003A53B7500BF036842F61B
:101F200000461D6A1A6AC4F2010622F001021A6212
:101F30001A465C6852F818CFB3428E68D1F800E0B8
:101F400025F0020545EA06050CD1CE68D1E90578F1
:101F500024F4407425F00C0526F004063C43354378
:101F600044EA08042CF0730747EA0E075C609F619F
:101F70004F6809695F631D629F6947F008079F61A9
:101F80009F6927F004079F61A6E000BF036842F63F
:101F900000461D6A1A6AC4F2010622F480721A62AF
:101FA0001A46D3F804C052F81CEFB3428E680C688E
:101FB00025F4007545EA06250FD1CE68D1E90598CC
:101FC000360240F2FF4725F44065BE4335432CF40A
:101FD000405748EA090647EA061C2EF073072743D4
:101FE000C3F804C0DF614F680969DF631D62DF6900
:101FF00047F00807DF61DF6927F00407DF616BE066
:10200000036842F60047D3F820C01A6AC4F20107F9
:1020100022F480521A621A465C6852F81C5FD1F8AA
:1020200000E08E68BB4204D14F6924F4804444EA46
:1020300087142CF4005747EA063725F4E64646EAAB
:102040000E265C60DE614E6809691E641F62DF69EE
:1020500047F40067DF61DF6927F48067DF613AE0FA
:10206000036842F600461D6A1A6AC4F2010622F0AD
:1020700010021A621A46D3F804C052F8184FB3423D
:102080008E68D1F800E025F0200545EA06150FD14D
:10209000CE68D1E905986FF0400725F0C00507EA42
:1020A000061635432CF4406748EA090647EA860CD1
:1020B00024F4E64444EA0E27C3F804C09F614F6845
:1020C00009699F631D629F6947F400679F619F696B
:1020D00027F480679F61090213681943116000218A
:1020E000BDE8F043002280F83C200846704700BF5E
:1020F0000121002280F83C2008467047002804BFD8
:102100000120704710B590F83D1031B9002180F8DA
:102110003C10044600F070F82046022180F83D1083
:10212000016840F2FF740B68C4F2000442F6004CF0
:10213000A142C4F2010C15DCB1F1804F1AD040F27B
:102140000042C4F20002914214D0A14218DCB1F165
:10215000804F1DD040F20042C4F20002914217D0DD
:102160001AE000BF614505D040F60002C4F200024B
:102170009142EAD1826823F070031343A142E6DD65
:10218000614505D040F60002C4F20002914203D13D
:10219000026923F440731343846923F08002D0F86A
:1021A00004E0C368224361450A60CB62C1F828E0BD
:1021B00002D14269CCF8302001224A610B69DB0769
:1021C00003D00B6923F001030B6180F8462080F8EF
:1021D0003E2080F83F2080F8402080F8412080F8A1
:1021E000422080F8432080F8442080F8452080F881
:1021F0003D20002010BD000070470000C1B104293F
:1022000008D0082914BF41224022825C012A05D04F
:1022100016E000BF3F22825C012A11D10222082968
:1022200010D0042914BF80F8412080F83F200BE033
:1022300090F83E20012A03D1022280F83E2003E0DC
:102240000120704780F84020006801F01F01012242
:10225000036A8A4023EA02010162036A42F64441AA
:10226000C4F201011A43A1F14403984202620FD063
:1022700040F2FF71C4F20001884213DCB0F1804FDC
:102280001CD040F20041C4F20001884216D01CE08C
:102290000A6842F400420A6040F2FF71C4F2000191
:1022A0008842EBDD42F60041C4F20101884205D0CC
:1022B00040F60001C4F20001884206D1816801F0B5
:1022C0000701062904BF00207047016841F00101A1
:1022D0000160002070470000704700007047000058
:1022E000B0B582B001680A68CC684B6902F02F056E
:1022F000202D04F0200505D125B102B0BDE8B04085
:1023000000F0E4BB5FEA027C1EBF03F0010E04F4A0
:10231000907313EB0E0341D1036BD50618D5012B37
:1023200016D114F0100313D0002201920A68019212
:102330004A680192019A496949064BD4818DC28D40
:10234000C38D002B18BF914240F0F48102B0B0BDA4
:1023500013062DD514F080032AD090F84120212AAD
:10236000F4D18268B2F5805F03D10269002A00F0DF
:102370006782026A531C036212784A60C28C013A77
:102380001304C284E2D1C86820F08000C860C86825
:1023900040F04000C86002B0B0BD00BFD30718BF16
:1023A00014F4807340F0D080530700F1D380D8E05C
:1023B0005206CBD514F04002C8D0CA6822F04002C1
:1023C000CA60202180F8411002B0BDE8B04000F0A2
:1023D00067BB00BFC16B0A68526893B2002BB5D0CF
:1023E000858DAB42B2D2C2858969202900F0A180D7
:1023F000016851E8031F026821F4807142E8031369
:10240000DBB1016851E8031F026821F4807142E8E2
:10241000031393B1016851E8031F026821F480712E
:1024200042E803134BB1016851E8031F026821F42D
:10243000807142E80313002BDAD1016851E8051FCF
:10244000026821F0010142E80513C3B3016851E8B5
:10245000051F026821F0010142E805137BB3016802
:1024600051E8051F026821F0010142E8051333B36A
:10247000016851E8051F026821F0010142E80513D7
:10248000002BDAD11BE000BF016851E8051F02688C
:1024900021F0400142E80513DBB1016851E8051F56
:1024A000026821F0400142E8051393B1016851E848
:1024B000051F026821F0400142E805134BB1016895
:1024C00051E8051F026821F0400142E80513002B86
:1024D000DAD1202180F8421000210163016851E81F
:1024E000031F026821F0100142E80313DBB1016809
:1024F00051E8031F026821F0100142E8031393B171
:10250000016851E8031F026821F0100142E803133B
:102510004BB1016851E8031F026821F0100142E845
:102520000313002BDAD1C16B04460846FEF72EFBDD
:10253000204602214163818DC28D891A89B202B081
:10254000BDE8B040FFF7C8BE436C43F001034364ED
:10255000530706D5BEF1000F03D0436C43F00203CE
:102560004364930706D5BEF1000F03D0436C43F0DC
:1025700004034364BCF1000F06D55EEA050303D0F3
:10258000436C43F008034364436C002B3FF4DEAE1E
:10259000920605D525B1044600F098FA2168204638
:1025A0004969426C01F0400102F00802891800F00C
:1025B000B98000BF016851E8031F026821F49071DF
:1025C00042E80313BBB3016851E8031F026821F41A
:1025D000907142E8031373B3016851E8031F026866
:1025E00021F4907142E803132BB3016851E8031FF3
:1025F000026821F4907142E80313002BDAD11AE04B
:10260000016851E8051F026821F0010142E8051345
:10261000DBB1016851E8051F026821F0010142E8C1
:10262000051393B1016851E8051F026821F001010B
:1026300042E805134BB1016851E8051F026821F01B
:10264000010142E80513002BDAD1016B012924D1E5
:10265000016851E8031F026821F0100142E80313EA
:10266000DBB1016851E8031F026821F0100142E864
:10267000031393B1016851E8031F026821F01001B0
:1026800042E803134BB1016851E8031F026821F0CF
:10269000100142E80313002BDAD1202180F8421008
:1026A0000021016301684969490640F1C38001685E
:1026B00051E8051F026821F0400142E80513DBB133
:1026C000016851E8051F026821F0400142E8051346
:1026D00093B1016851E8051F026821F0400142E80A
:1026E00005134BB1016851E8051F026821F0400154
:1026F00042E80513002BDAD1C16B002900F09A8063
:1027000042F6C122C0F60002044608464A63FEF7BC
:1027100061FA00283FF41AAEE06B416B02B0BDE8ED
:10272000B04008470446FFF7D9FD0020606402B0BE
:10273000B0BD00BF891A00BF026852E8032F0368CA
:1027400022F4907243E80325BDB3026852E8032FD8
:10275000036822F4907243E8032575B3026852E8D7
:10276000032F036822F4907243E803252DB3026817
:1027700052E8032F036822F4907243E80325002DEA
:10278000DAD11AE0026852E8052F036822F001024C
:1027900043E80525DDB1026852E8052F036822F001
:1027A000010243E8052595B1026852E8052F036848
:1027B00022F0010243E805254DB1026852E8052FD9
:1027C000036822F0010243E80525002DDAD120221A
:1027D00080F8422000220263026852E8032F036857
:1027E00022F0100243E80325DDB1026852E8032F0E
:1027F000036822F0100243E8032595B1026852E80D
:10280000032F036822F0100243E803254DB102684C
:1028100052E8032F036822F0100243E80325002D3D
:10282000DAD1022289B2426302B0BDE8B040FFF7BC
:1028300053BD00BF02B0BDE8B040FFF74FBD00BFC1
:10284000026A32F8023B6FF35F234B60026295E548
:10285000002804BF0120704710B5044690F84100DD
:1028600028B9002084F84000204600F063F82420B6
:1028700084F841002068D4E90212C36823F40053AD
:10288000C360036923F440531A430261D4E904236B
:102890001143C268194341F20C639A431143C1606A
:1028A0004169A26921F44071114343F60002C4F268
:1028B00001029042416103D0FEF7EAFE02E000BF50
:1028C000FEF7FAFED4E90023192148439900B0FB32
:1028D000F1F048F21F5CC5F2EB1CA0FB0C314FF687
:1028E0009C734909C0F6FF7301FB0300322303EB1D
:1028F0000010A0FB0C03F02000EA531000EB0110C5
:10290000C3F34311084490601069202120F49040E3
:102910001061506920F02A005061D06840F40050E6
:10292000D0600020606484F8411084F84210606335
:1029300010BD000070B586B040F60004C4F201047A
:10294000006804F54051002688420596CDE90366EB
:10295000029601D006B070BD41F21800C4F2020028
:10296000016802AD41F480410160016801F48041D9
:1029700001910199016841F0040101600068294654
:1029800000F00400019001984FF4007002900220C2
:102990000390032005902046FEF7DAFA4FF480609A
:1029A000CDE90206204629460496FEF7D1FA2520F5
:1029B00000210022FEF754FC2520FEF73FFC06B064
:1029C00070BD000090F84230202B07D100294FF055
:1029D000010318BF002A05D1184670470223184684
:1029E000704700BF00230363816222218285C28574
:1029F000436480F842100169006819B1C16841F46C
:102A00008071C160416941F001014161C16841F0DB
:102A10002001C16018467047006843F60001C4F207
:102A20000101884218BF7047B0B540F27004C2F28D
:102A3000000460780A281FD1204610F8061B0025E4
:102A40004554FDF7DFFB80B2B42812D828BFB4206C
:102A50004FF4FA61484341F2C261C0F26C11A0FB2D
:102A6000010140F24810C2F20000006801F5FA715D
:102A70000164257009E000BF0D2806D021781229D5
:102A800003D84A1C21442270887140F29010611CC6
:102A9000C2F200000122BDE8B040FFF793BF000082
:102AA00070470000FEE70000FEE70000FEE70000C0
:102AB0007047000070470000FEF758BB70470000E9
:102AC000406A0021C185C184FFF708BC81B090F83D
:102AD0004210222921D183680246B3F5805F09D1D3
:102AE00052F8281F52F8183C002B63D003685B682B
:102AF0000AE000BF52F8281F13B90369002BF5D074
:102B000003685B6803F07F030B701168013111608B
:102B1000C18D01390A04C18502D001B0704700BFE0
:102B20000168CA6822F02002CA60CA6822F4807272
:102B3000CA604A6922F001024A61202180F84210ED
:102B400000214163026B012A3CD10163016851E815
:102B5000031F026821F0100142E80313DBB1016892
:102B600051E8031F026821F0100142E8031393B1FA
:102B7000016851E8031F026821F0100142E80313C5
:102B80004BB1016851E8031F026821F0100142E8CF
:102B90000313002BDAD101680A68D20606D5002299
:102BA00000920A680092496800910099818D01B0F5
:102BB000FFF792BB026852686FF35F2221F8022B85
:102BC0008162A5E701B0FFF727BF000040F2901037
:102BD000C2F20000FFF784BBFEE7000096B0FEF7EC
:102BE000D3FA00240120CDE91144CDE90F440C9023
:102BF00010904FF4E0104FF48031022515900CA88E
:102C00000594CDE90344CDE90D14CDE91351FEF748
:102C100067FD28B1EFF3108072B600BFFEE700BF7A
:102C20000F20CDE906054FF48060CDE9090406A820
:102C300002210894FEF74EFC20B1EFF3108072B62B
:102C4000FEE700BF4FF400400226049002A802965F
:102C5000FEF7BEFB20B1EFF3108072B6FEE700BFB7
:102C6000002441F21807CDE90E44CDE90C44C4F22A
:102C70000207386840F2004540F0200038603868AC
:102C8000C4F2000500F020000690069838680CA9F0
:102C900040F004003860386800F0040006900698A0
:102CA000386840F008003860386800F00800069086
:102CB00006984FF4804051C105F584300CA9FEF709
:102CC00047F957F8040C002140F0010047F8040CC4
:102CD00057F8040C002200F001000C900C980B2017
:102CE000FEF7BEFA0B20FEF7A9FA40F24810C2F236
:102CF0000000472144F61F620994CDE90744CDE95D
:102D00000244CDE91144CDE90F44C0E90051C0E9C6
:102D1000024204618461FEF739FF28B1EFF31080AD
:102D200072B600BFFEE700BF4FF48050069040F23D
:102D30004810C2F2000006A9FEF7D0FF20B1EFF361
:102D4000108072B6FEE700BF40F24810C2F20000E9
:102D5000FFF7D4F920B1EFF3108072B6FEE700BFA1
:102D600040F24810C2F2000002A9FEF7CFFE28B1DF
:102D7000EFF3108072B600BFFEE700BF60200C903A
:102D80000020CDE90D00109040F24810C2F2000082
:102D90000CA90422FFF7B0F820B1EFF3108072B64F
:102DA000FEE700BF40F24810C2F200000CA90C225E
:102DB000FFF7A2F820B1EFF3108072B6FEE700BF74
:102DC00040F24810C2F20000FFF758F840F200103D
:102DD0000021C2F200004FF08042472344F61F67F3
:102DE0000F91CDE90D11CDE90611C0E90023C0E92D
:102DF000021701618161FEF7C9FE28B1EFF310806F
:102E000072B600BFFEE700BF4FF480500C9040F256
:102E10000010C2F200000CA9FEF760FF20B1EFF332
:102E2000108072B6FEE700BF40F20010C2F2000050
:102E300006A9FEF76BFE18B1EFF3108072B6FEE73D
:102E400040F2901005F59A31C2F2000000240C23E4
:102E50004FF4E13280E81600C0E90344C0E90534CC
:102E6000C461FFF7F5FC18B1EFF3108072B6FEE70E
:102E700040F27006C2F2000605F59031304640F887
:102E80001C1F4FF4807101254FF46022C0E90141FD
:102E9000022105730475C2610161FDF7E3FC18B1FD
:102EA000EFF3108072B6FEE70420CDE90C0506F1C1
:102EB0001C0505240CA928460E94FDF72DFC18B11D
:102EC000EFF3108072B6FEE702200D900CA92846A1
:102ED0000C94FDF721FC18B1EFF3108072B6FEE7F9
:102EE0002846FDF78BFBB11C28460222FDF7BAFDF0
:102EF00040F24814C2F2000420460421FFF77EF994
:102F000020460C21FFF77AF940F29010711CC2F2B2
:102F100000000122FFF756FD41F2C2674FF05A0B45
:102F200000204FF0000900255A24C0F26C170190D0
:102F300040E000BF45F238010AEB8A00CFF6FF718E
:102F400001EB800045F63761C8F61561A0FB010171
:102F5000880A019908444CF6CD410A30CCF6CC41A0
:102F6000A0FB0112D10801EB8101A0EB41000BEBAA
:102F7000D20B0190BBF1B40FA8BF9B46A0B2B428FE
:102F800028BF18464FF4FA625043A0FB07011FFA0E
:102F90008BF0B42828BF18465043A0FB070240F22C
:102FA0004810C2F20000006801F5FA71016402F5F0
:102FB000FA718163B6F80280B6F804A0FEF7D0F883
:102FC000401B0F28F6D3FEF7CBF840F6CB0CE045BC
:102FD000054623D345F2380108EB8800CFF6FF7190
:102FE00001EB800045F63761C8F61561A0FB0101D1
:102FF000880A48444CF6CD410A30CCF6CC41A0FBBF
:103000000112D10801EB810104EBD204A0EB4109CC
:10301000B42C4FF0B403A8BF1C4627E040F2D560A3
:1030200080454FF0B4031FD840F2D660A0EB0800F3
:1030300000EB800048F272318000C0F22501A0FB55
:10304000010101EB09004CF6CD410A30CCF6CC4130
:10305000A0FB0112D10801EB8101A0EB4109A4EB17
:10306000D20020EAE07401E04FF00009E245BFF42D
:1030700061AF40F2D560824520D840F2D660A0EB27
:103080000A0000EB800048F272318000C0F2250196
:10309000A0FB0101019808444CF6CD410A30CCF662
:1030A000CC41A0FB0112D10801EB8101A0EB410052
:1030B0000190ABEBD20020EAE07B5FE700200190BB
:1030C0005CE7000010B500290AD00878002807D076
:1030D00005487844FDF77EF9002801D0002010BD96
:1030E0000248784410BD00006A0000006200000041
:1030F00000000000000000000102030406070809A8
:103100000000000001020304010202030405060797
:1031100008090A0B0C0D0E0F1010000050320008A9
:10312000000000201000000050010008603200087C
:1031300010000020D00700007001000810010000FE
:1031400043000000F8FFFFFF004040404040404087
:10315000404041414141414040404040404040406A
:10316000404040404040404040050202020202020E
:10317000020202020202020202202020202020205D
:103180002020200202020202020290909090909071
:10319000101010101010101010101010101010102F
:1031A00010101010020202020202888888888888A3
:1031B000080808080808080808080808080808088F
:1031C0000808080802020202400000000000000097
:1031D00000000000000000000000000000000000EF
:1031E00000000000000000000000000000000000DF
:1031F00000000000000000000000000000000000CF
:1032000000000000000000000000000000000000BE
:1032100000000000000000000000000000000000AE
:10322000000000000000000000000000000000009E
:10323000000000000000000000000000000000008E
:10324000000000000000000000000000000000007E
:10325000010000001000000000127A0000000000D1
:04000005080000ED02
:00000001FF
